:020000040000FA
:10000000D80B0010B1020000B5020000B7020000DA
:10001000B9020000BB020000BD02000000000000A9
:10002000000000000000000000000000BF0200000F
:10003000C10200000000000025010000972100001F
:10004000C7020000C7020000C7020000C70200008C
:10005000C7020000C7020000C7020000C70200007C
:10006000C7020000C7020000C7020000C70200006C
:10007000C7020000C7020000C7020000C70200005C
:10008000C7020000C7020000C7020000C70200004C
:10009000C7020000C7020000C7020000C70200003C
:1000A000C7020000C7020000C7020000C70200002C
:1000B000C7020000C7020000C7020000C70200001C
:1000C0000348854602F022FC004800476902000010
:1000D000D80B00100F4C01252570774602F0C9F8A7
:1000E000BE460D4E36680D4C26603268954601BC02
:1000F0000B490860F0BC0FBC8046894692469B467F
:1001000004B00FBC8446964688B00FBC04B062B6FB
:10011000704700BF24000010340000102C000010B5
:100120004800001072B6F0B44046494652465B465D
:100130000FB4744602F09DF8A6460E49086801B453
:100140000D4A1268684610600C4C0D4D2E782670D2
:100150000C4E3668084C26603068854601BC086045
:10016000002800D162B60FBC8046894692469B4665
:10017000F0BC7047480000102C0000102000001058
:100180002100001034000010002080F31488704714
:10019000012080F3148870478847FF2000F08CFD11
:1001A00000BF3D4800680121890208433A490860C0
:1001B0003A48C06B0121890208433849C86322E0EC
:1001C000322000F041FF3548C06B0121890288438D
:1001D0003249C86301220A21022002F077F8012285
:1001E0000A21022002F008F9322000F02DFF2B48EE
:1001F000C06B0121890208432849C86300220A21F3
:10020000022002F0F9F8DBE700BF23480068402134
:100210000843214908602148C06B402108431F4919
:10022000C86320E0192000F00FFF1C48C06B40217C
:1002300088431A49C86301220821104602F046F893
:1002400001220821104602F0D7F8192000F0FCFE28
:100250001248C06B402108431049C863002208219E
:10026000012002F0C9F8DDE710B500F0FBF802F05C
:1002700019F801F08FF80423094A0021094800F019
:100280007DFC0523084A0021084800F077FC01F0B6
:100290004CF9002010BD000000800050C03F00500D
:1002A000D8010010A101000068030010090200003D
:1002B00005480047FEE7FEE7FEE7FEE7FEE7FEE74C
:1002C000FEE7FEE7FEE7FEE7C100000010B50024F0
:1002D0008D48406AC005000F030002F029FB100999
:1002E0000B0D0F11131517191B1D1F21232527296E
:1002F000864C1DE0864C1BE0864C19E0864C17E0CE
:10030000864C15E0864C13E0864C11E0864C0FE0DD
:10031000864C0DE0864C0BE0864C09E0864C07E0ED
:10032000864C05E0864C03E0864C01E0864C00BF1D
:1003300000BF7548406AC006800E811C204602F04E
:10034000ABFA044670484030006B8007800F0028ED
:1003500006D0012808D0022825D0032877D125E02F
:100360007A487B49086072E067484030006880073F
:10037000800F002806D0012808D002280AD00328C0
:100380000FD10AE07148724908600AE06F4870496D
:10039000086006E06E48046003E000206C490860D5
:1003A00000BF00BF53E06A48046050E05648403048
:1003B00000688007800F002806D0012819D0022885
:1003C0002CD0032841D13CE04F488068FF21813187
:1003D0000840002803D05D485D49086008E04A48AD
:1003E0008068C006C00E401C584948435849086000
:1003F0002BE045488068FF2181310840002803D068
:1004000052485349086008E03F488068C006C00E63
:10041000401C4E4948434E49086016E03A488068FF
:10042000FF2181310840002802D04948046007E0DC
:1004300035488068C006C00E401C604344490860CF
:1004400003E000204249086000BF00BF00BF00BFBA
:100450002D484030816B3E48006802F01DFA3C494F
:10046000086010BD10B53B48806B20218843394996
:100470008863002024490862002401E000BF641C56
:10048000C82CFBD30120204940310860486000207F
:1004900048600120486000BF1B4840304068C007EA
:1004A000C00F0028F8D00320174988602948806BC6
:1004B000802188432749886300BF1348C068C0076C
:1004C000C00F0028F9D003200F49403108630120F4
:1004D0004863002048630120486300BF0A48403059
:1004E000406BC007C00F0028F8D0012006494031FA
:1004F0008863194804498031086001204861886197
:10050000C861FFF7E3FE10BD00800440801A0600BA
:1005100020A1070000350C00E0C81000C05C1500E9
:10052000006A180040771B0080841E00C0912100E3
:10053000009F240040AC2700E032290020402C001E
:10054000604D2F0000D4300040E13300001BB700A5
:1005500000000010008204405F00010070B50546F5
:10056000002D00D170BD2878022801D00020F9E7C5
:1005700001F0FBFD6C68E08A00280DDD2169081D93
:1005800020610E68E08A401EE082A16820698842EE
:1005900003D16068206100E0002601F0EDFD3046E7
:1005A000E0E7F8B506460F46F8480078002801DD78
:1005B0000020F8BD01F0D9FDF54805680068002865
:1005C00004D0F34800684068F149086001F0D4FDA8
:1005D000002D25D001F0C9FDEE480468002C17D08D
:1005E00000680068EB49086001F0C6FD6660B8006D
:1005F0008019A060E6602661A7820020E0820220C8
:100600002870002068806C60284601F0ECF807E054
:10061000DF4800686860DE48056001F0ADFD002538
:100620002846C6E7F7B504461546D848007800289E
:1006300003DD8C2028700020FEBD002C03D1042097
:1006400028702046F8E72078022803D0012028707F
:100650002046F1E701F089FD6078002801D00127EC
:1006600000E000270198002802D0012839D119E0C4
:10067000002F11D16668C74800683060C548066021
:1006800000202070C24800686060C148046001F02A
:1006900073FD00202870CFE701F06EFD0820287060
:1006A0002046C9E704E004220021204600F0FDFFB7
:1006B00060780028F7D16668B64800683060B548B1
:1006C000066000202070B24800686060B048046096
:1006D00001F052FD012F01D100F0D6FE002028705C
:1006E000AAE701F049FD072028702046A4E770B56D
:1006F0000546002D01D1042070BD2878022801D0C4
:100700000120F9E701F031FD6C686068E060606825
:1007100020610020E08201F02FFD0020ECE7F7B51A
:100720000646154699480078002803DD0220287007
:100730000020FEBD002E03D1042028700020F8E721
:100740003078022803D0012028700020F1E701F062
:100750000CFD7468E08A002812DD2169081D206103
:100760000F68E08A401EE082A1682069884201D1BA
:100770006068206101F000FD002028703846D8E74D
:10078000854800682030007B0421084382490968BD
:10079000203108738049019809684885304600F087
:1007A000C2FF01F0E9FC00F06FFE01F0DEFC7A48C8
:1007B0000068076A002F12D0002077490968086294
:1007C00000217548006820300173002072490968D3
:1007D000C86101F0D1FC002028703846A9E73046F6
:1007E00000F0DBFF01F0C8FC0A2028700020A0E721
:1007F00070B505460E46002D01D1042070BD002EB7
:1008000001D10320FAE72878022801D00120F5E77A
:1008100001F0ABFC687800280AD004223146284653
:1008200000F043FF01F0A8FC00F02EFE0020E5E7F9
:100830006C68E08AA18A884203DB01F09DFC1E20DF
:10084000DCE7E168081DE0600E60E08A401CE082A1
:10085000A168E068884201D16068E06001F08CFC2A
:100860000020CBE770B505460E46002D01D10420CF
:1008700070BD002E01D10320FAE72878022801D0AC
:100880000120F5E701F071FC687800280AD0042205
:100890003146284600F009FF01F06EFC00F0F4FD3F
:1008A0000020E5E76C68E08AA18A884203DB01F05A
:1008B00063FC1E20DCE761682069884201D1A068E2
:1008C00020612069001F206120690660E08A401CC9
:1008D000E08201F051FC0020CAE7F8B505460E465B
:1008E0001746002D01D10420F8BD002E01D10320B0
:1008F000FAE72878022801D00120F5E701F035FC5D
:100900006878002818D0F807C00F002809D004E044
:1009100004223146284600F0C8FE68780028F7D146
:1009200004E004223146284600F0BFFE01F024FC1A
:1009300000F0AAFD0020D7E76C68E08AA18A88420F
:1009400003DB01F019FC1E20CEE70220384000280E
:100950000BD061682069884201D1A06820612069BC
:10096000001F20612069066009E0E168081DE06061
:100970000E60A168E068884201D16068E060E08AAA
:10098000401CE08201F0F8FB0020ADE71D000010E4
:1009900008000010400000102C000010F8B50546BB
:1009A0000C46002D01D10420F8BD2878022801D082
:1009B0000120F9E701F0D9FB687860722F4608370B
:1009C0002046083000903978009801707F1C00980C
:1009D000401C00906E68F08A002803DD30690068D2
:1009E000206001E000202060F08AA080B08AE080D2
:1009F00001F0C2FB0020D7E710B5094802461832C3
:100A0000002104E00260183018324B1C99B203290F
:100A1000F8DB00230360024B024C236010BD000092
:100A20007409001040000010F3B583B00E4603981F
:100A3000072802DB0398FF2801D1072E02DB2A20BA
:100A400005B0F0BD01F091FBB000F949085800284D
:100A500003D001F091FB2820F2E70120B100F44A15
:100A6000505001F089FBF710F248C05D009070070C
:100A7000400F0290EF490298085C019001F075FB6D
:100A80000398FF2804D1EC4800682030407B039095
:100A900003988000E6490C58002C67D00021039889
:100AA0008000E34A11502F20005DE449085C3021AA
:100AB000095D0840002820D02F20005DDF49085C38
:100AC0003021095D88432F21095DDC4A50540028FC
:100AD00006D13120015DDA4800788843D849087092
:100AE000D748007800990843D5490870D348C05DBD
:100AF00001990843D149C85522E0E569002D1FD06E
:100B00002F20015D28460830405C3021095D884374
:100B10002F210A5D294608318854002804D16878BD
:100B20003121095D884368706878009908436870CE
:100B300028460830C05D0199084329460831C85548
:100B4000B000BB490C502D2006552F2007552E21F3
:100B50000298085531210098085530210198085510
:100B600001F00AFB00F090FC002069E70020B100D2
:100B7000AF4A505001F000FB292061E7FFB585B076
:100B800006460F461C46072C02DD2A2009B0F0BDA0
:100B900001F0EBFAA000A6490858002833D1012043
:100BA000A100A34A505001F0E7FA0023394630462D
:100BB000079A01F01DFB049000200090019003466D
:100BC000024602902046049900F014FE0546002DCE
:100BD0000FD101F0CAFA9B480078401C994908706F
:100BE00001F0CAFA9848007801280AD100F04CFCBC
:100BF00007E001F0BAFA0020A1008D4A505001F040
:100C0000BBFA2846C2E701F0B7FA2820BEE7FFB5D5
:100C100085B01C460F9F129D072C02DD2A2009B0CB
:100C2000F0BD01F0A2FAA0008149085800283FD188
:100C30000120A1007E4A505001F09EFAE807C00F43
:100C4000002803D102202840002804D010988100F9
:100C5000384601F050FE2B4605A807C801F0C8FA37
:100C60000490119910986A4623C23A4620460E9B7A
:100C7000049900F0BFFD0646002E0FD101F075FA71
:100C800070480078401C6F49087001F075FA6E4892
:100C9000007801280AD100F0F7FB07E001F065FABF
:100CA0000020A100624A505001F066FA3046B6E7D3
:100CB00001F062FA2820B2E7F8B5054663480078EB
:100CC000002801DD3F20F8BD072D01D13D20FAE7C6
:100CD000072D03DBFF2D01D02A20F4E701F045FAB0
:100CE000FF2D03D1544800682030457BA8005049AF
:100CF0000C58002C74D02F20005D5049085C302126
:100D0000095D88432F21095D4C4A5054002806D1C3
:100D10003120015D4A480078884349490870E669F6
:100D2000002E13D02F20015D30460830405C30216A
:100D3000095D88432F210A5D314608318854002817
:100D400004D170783121095D88437070676A002F83
:100D500002D0384600F071FE0020608500212C2072
:100D600001553B480078FF2804DA39480078401CD8
:100D70003749087001F000FA00F096FC01F0F5F92F
:100D800033480078002804DD31480078401E30499F
:100D90000870204601F06BFA2A480078401E294965
:100DA00008700020A900224A5050A069002805D1EF
:100DB0006169886127496069086005E0A169606927
:100DC00048616169A06988612348006860612248C0
:100DD000046001F0D1F900F057FB002073E7FFE752
:100DE00001F0CAF93C206EE7F8B50446072C01D1A2
:100DF0003D20F8BD072C03DBFF2C01D02A20F8E7AB
:100E0000FF2C09D101F0B1F90B4800682030877C34
:100E100001F0B2F93846ECE701F0A7F9A000044967
:100E20000E58002E1AD03E2132208155002516E0A2
:100E30008C0700106A2900002C000010230000100D
:100E40002200001025000010240000101D000010DA
:100E50001F00001038000010300000100B2501F0BA
:100E60008BF92846C5E770B50546072D01DB2A201A
:100E700070BD01F07AF9A8006F490C58002C03D11D
:100E800001F07AF96420F3E72C20005D0821084086
:100E9000002824D02C20005D88432C2108550028F0
:100EA00019D1608D002816D13120005D6349097881
:100EB0000843624908702F20005D6149085C3021B9
:100EC000095D08432F21095D5D4A505401F054F932
:100ED00000F0DAFA01E001F04FF90020C8E701F074
:100EE0004BF96520C4E7FEB504460D46072C03DD2B
:100EF000FF2C01D02A20FEBD00202860686001F090
:100F000034F9FF2C03D14F4800682030447BA00007
:100F100049490E58002E03D101F02EF90B20EAE7C3
:100F2000307CC007C00F002803D101F025F98220D2
:100F3000E1E70027F0680090B068019001F01CF92B
:100F400000E07F1C019802C801900029F9D0B80088
:100F500028600098C01B800068600020CBE770B557
:100F60000546072D01D15B2070BD072D03DBFF2D4A
:100F700001D02A20F8E701F0F8F8FF2D05D131481B
:100F800000682030457B012608E02E4800682030AC
:100F9000407BA84201D1012600E00026A800264996
:100FA0000C58002C03D101F0E7F85A20DCE72F2081
:100FB000005D2349085C3021095D88432F21095DCC
:100FC0001F4A5054002806D13120015D1B4800788B
:100FD00088431A4908702C20005D082108432C2101
:100FE000085501F0C9F8012E01D100F04DFA00209A
:100FF000BAE770B504460E46072C03DDFF2C01D07E
:101000002A2070BD01F0B1F8FF2C03D10D48006813
:101010002030447BA00008490D58002D03D101F079
:10102000ABF82920EDE734222946304601F04AFC8E
:1010300001F0A2F80020E4E78C0700102200001065
:10104000230000102C00001010B50446002C24DDF5
:1010500001F08BF85D4800682030C07B5C49085C7B
:101060005A4909682031097C884358490968203168
:10107000C97B574A5054002808D154480068203092
:10108000417C544800788843524908704F480068B2
:10109000448501F071F800F0F7F910BDFFB581B09B
:1010A0000C4615461E460198002805DC002C03DC82
:1010B000002D01DC002E39DD3B2C02DD512005B076
:1010C000F0BD3B2D01DD5220F9E74348864201DDAA
:1010D0005320F4E7B11CC822514308467D21C900C2
:1010E00001F0DAFB0146E1221201019850433C2253
:1010F000624380184019C82250430F18380C0090E2
:10110000BFB23846FFF7A0FF0BE00120C003FFF796
:101110009BFF0120C003FFF797FF0098401E80B29D
:10112000009000980028F0DC0020C8E75420C6E7B3
:1011300070B50546072D01DB2A2070BD01F015F8BA
:10114000A80026490C58002C29D0608D002822D0F8
:10115000002060852C20005D08210840002816D161
:101160003120005D1B49097808431A4908702F2077
:10117000005D1749085C3021095D08432F21095D96
:10118000134A505400F0F8FF00F07EF901E000F03F
:10119000F3FF0020D1E700F0EFFF5020CDE700F093
:1011A000EBFF0B20C9E710B500F0DFFF0C48046827
:1011B00000F0E2FF204610BD10B5044600F0D5FF58
:1011C0000748046000F0D8FF10BD00002C0000109C
:1011D0002300001022000010E70300008C0700101D
:1011E0004400001000BF03E0FF209130FFF72CFF08
:1011F000FE4800780028F7D06421FD48006801F01F
:101200004BFB044600BF00F0B0FFFA480068FA4903
:101210000860F84806680020F649086000F0ACFF56
:10122000002C0FD02146304601F036FB6421081A0D
:1012300045B2002D02DBF14805700CE00020EF49BB
:10124000087008E00020ED4908706421E848006853
:1012500001F022FB044601F00DF8C820FFF7F4FE70
:10126000D1E700B585B0032000218022E44B019333
:10127000029203910490E3480623E34A0090E34876
:10128000FFF7C5FC05B000BD00BF00BF00F06DFF5B
:10129000D8480068401CD749086000F06DFF00F096
:1012A000EDFFF3E700B585B0032000214022D84BC5
:1012B0000193029203910490D248401C0723D44A20
:1012C000FC320090D348FFF7A2FC05B000BD10B57A
:1012D000D14802460C32002106E000230370426030
:1012E0000C300C324B1C99B21329F6DB002303702F
:1012F0004360C94BC94C236010BD30B50023C84CB6
:101300002360002005E000238400C64D2B51431CC0
:10131000D8B20828F7DBC4490A463432002004E07A
:101320004A6134313432431CD8B20728F8DB002339
:101330004B61BD4BBD4C236030BD0022BC4B1A70CD
:10134000BC49002004E000220A70491C421C90B2F3
:101350000128F8DB0022B84B1A70B84B1A70B84B52
:101360001A60B84B1A6070470020B7490860B74947
:101370000870B7490870B7490870B7490870B7498D
:1013800008609C4908609C49086099490860974931
:101390000870704710B500F066FFFFF7E5FFFFF734
:1013A000CCFFFFF7AAFFFFF792FF00F0BEFD00F0B1
:1013B00084FEFFF721FBFFF775FFFFF752FF00F0F8
:1013C00053FF10BDA4480078012808D19F48007839
:1013D000FF2804DA9D480078401C9C49087070473B
:1013E00010B59D48007801283AD100F0BEFE97481C
:1013F0000078002804DD95480078401E9349087065
:1014000092480078002829D191480078002825D1F9
:10141000934887490978405C9249087008460078EB
:10142000C00084498F4A1278895C8D4A515C40180B
:1014300082490870084600787F49097888420DD0B3
:101440007E4800788000774908587D4908608348C5
:101450000068401C8149086000F0C4FE00F08CFE6A
:1014600010BD10B57C48007801280CD100F07DFE3D
:1014700077480078FF2804DA75480078401C7449E2
:10148000087000F079FE10BD10B500F06EFE6F48D8
:101490000078002823D16E48007800281FD17048BA
:1014A00063490978445CE0006249095D6C4A515C1B
:1014B000401862490870084600785F4909788842F8
:1014C0000DD05E4800788000564908585C49086095
:1014D00062480068401C6149086000F083FE00F02B
:1014E0004BFE10BD10B55C48007801281CD100F0FF
:1014F0003CFE57480078002814DD55480078401E0F
:101500005349087008460078002808D14F480078F1
:10151000002804D100F030FEFFF7B6FF04E000F031
:101520002BFE01E000F028FE10BD70B54A4800789F
:1015300000281CD14A483E490978445C3D48005D7A
:1015400047490D5CE00040193C49087008460078A6
:1015500039490870394800788000324908583849BC
:101560000860084600683749086000F01CFE70BD3E
:1015700010B50220FFF768FD00F0F7FD00201D49BF
:10158000086000F0F9FDC820FFF75EFD00F0EDFDFA
:10159000184800681649086001201449087000F0D6
:1015A000EBFD10BD10B500F068FE00F0DEFD264832
:1015B0000068401C2449086000F0DEFD26480078E1
:1015C00001286ED11648046867E000F0CEFD608DFA
:1015D00000285FD0608D401E80B26085002859D100
:1015E0002C20005D0821084000283DE01C00001070
:1015F0001400001028000010180000101000001047
:101600008C040010FEFF000088060010E5110000A9
:101610008C060010891200006C03001008000010F6
:10162000380000108C070010AC07001030000010CC
:1016300022000010230000102000001021000010E4
:10164000340000102C000010440000101D00001099
:101650001F000010250000102400001004000010DE
:10166000722900001E00001012D13120005D974940
:1016700009780843954908702F20005D9449085C5B
:101680003021095D08432F21095D914A505401E042
:1016900001206085646900F06FFD2D20005D072842
:1016A00093D110BDFC2070477047F7B581B0034659
:1016B0005878884F3A5C8848865C18460830805CC9
:1016C0003C5C8548055DD0000019C0B2009018460A
:1016D0000830805CA8431F460837B854002802D160
:1016E0005878B0435870009880007C4F39580020DB
:1016F0004885C861029808622C20405C039FB8436B
:101700002C2778542C20405C002809D16F480078A1
:1017100030436E4F38706E48805C28436C4FB8542D
:10172000009804B0F0BD6E490968C8616C49096849
:101730002031C97B664A515C694A12682032127CAA
:101740009143674A12682032D27B614B9954002939
:1017500008D16349096820314A7C5C490978914382
:101760005A4A11705E4909682031CA7B0146083126
:10177000895C5B4A12682032127C1143584A126815
:101780002032D37B02460832D1544178544A126841
:101790002032527C11434170704751490968203111
:1017A000CA7B01460831895C4D4A12682032127C9E
:1017B00091434B4A12682032D37B02460832D154FF
:1017C000002906D14178464A12682032527C914362
:1017D000417000224249096820310A730021404AC1
:1017E0001268D161704700224270014608310A70C8
:1017F000491C7047FFB581B005460E46174600F0FC
:10180000B4FC38480468002C5CD036496069086034
:1018100000F0B2FC26602D20055500212C2001553A
:10182000002060850B9860600A98E060A7600C98C3
:1018300020820498608232200155E9102F20015542
:10184000005D2549095C312001556907490F2E20AB
:101850000155005D2049095C302001550020E06100
:1018600060622062204600F006FD204600F0FDFC8C
:1018700000F07BFCA80019490C501B48006860610F
:101880000020A06118480068002802D016480068AF
:101890008461154804603120005D0C4909780843D3
:1018A0000A4908702F20005D0949085C3021095D54
:1018B00008432F21095D064A505400F05DFC0020CA
:1018C00005B0F0BD00F058FC4620F9E722000010FA
:1018D00023000010722900006A2900008C07001004
:1018E0002C0000103000001038000010FFB583B04D
:1018F00004460F461E46002C04D19620307000206E
:1019000007B0F0BD2078052803D0012030700020FA
:10191000F6E7802105980840002805D005988843FF
:1019200005900120019001E000200190002030701E
:1019300000F01BFC059800282AD001283BD0022883
:1019400002D003284AD111E025893D40BD4206D18D
:101950000198012805D12089A843208101E0982021
:1019600030702089029000F007FC3EE025893D4060
:10197000002D06D00198012805D12089A843208197
:1019800001E0982030702089029000F0F5FB2CE0F7
:1019900020893D468543BD4206D10198012805D1E5
:1019A00020892843208101E098203070208902900E
:1019B00000F0E2FB19E020893D468543002D06D06A
:1019C0000198012805D120892843208101E0982031
:1019D00030702089029000F0CFFB06E000F0CCFBD5
:1019E000002002909720307000BF00BF029887E768
:1019F00070B506460D46F7480078002803DD8D20B7
:101A00002870002070BD00F0B0FBF3480468002C83
:101A10000DD000684068F0490860052020702681DC
:101A20000020606000F0A8FB0020287003E000F0B8
:101A3000A3FB9A2028702046E4E730B501464A68A7
:101A40000868002A06D1CC686060002806D000250E
:101A5000456003E01060002800D042608B680025DC
:101A60005D6230BDF0B506460F46B4680020608563
:101A700027852C20005D202188432C2108552C200F
:101A8000005D002813D13120005DD4490978084356
:101A9000D24908702F20005DD149085C3021095DD2
:101AA00008432F21095DCE4A5054012500E000254E
:101AB0003046FFF7C2FF2846F0BDF7B5044615468D
:101AC000C4480078002803DD8C2028702046FEBD25
:101AD000002C03D1962028702046F8E720780528AE
:101AE00003D0012028702046F1E700F03EFB60683B
:101AF000002801D0012600E000260198002802D02D
:101B000001282DD113E0002E0BD100202070B24807
:101B100000686060B048046000F02EFB0020287070
:101B2000D5E700F029FB082028702046CFE767683A
:101B300004E000213846FFF795FF3F68002FF8D1F9
:101B400000202070A44800686060A348046000F092
:101B500013FB012E01D1FFF797FC00202870B6E798
:101B600000F00AFB072028702046B0E7F0B59D4D35
:101B70002D6820352D7B202635439A4E3668203639
:101B80003573984E059D36687585964D2D6869624A
:101B90000A828B74934D2D688D6045680D60002519
:101BA0004D60C8604468002C00D0616041608D4D7C
:101BB0002D682035ED7B8A4E755D8A4E366820365D
:101BC000367CB543874E36682036F67B844FBD554C
:101BD000002D08D1834D2D6820356E7C7F4D2D78EA
:101BE000B5437E4E3570F0BDFFB589B004460F4653
:101BF000129E78480078002804DD02203070002012
:101C00000DB0F0BD002C03D1962030700020F7E716
:101C10002078052803D0012030700020F0E78021D3
:101C20000B980840002805D00B9888430B900120A2
:101C3000029001E00020029000F097FA0B98002833
:101C400040D001285CD0022802D0032877D11CE0C4
:101C500025893D40BD420DD10298012802D120893D
:101C6000A84320812089039000F086FA002030707C
:101C70000398C5E70C9800903A4604A920460B9BB0
:101C8000FFF774FF00F078FA61E025893D40002DF0
:101C90000DD00298012802D12089A84320812089F3
:101CA000039000F069FA002030700398A8E70C98C0
:101CB00000903A4604A920460B9BFFF757FF00F01F
:101CC0005BFA44E020893D468543BD420DD1029830
:101CD000012802D12089284320812089039000F027
:101CE0004BFA0020307003988AE70C9800903A462F
:101CF00004A920460B9BFFF739FF00F03DFA26E0D0
:101D000020893D468543002D0DD00298012802D13F
:101D10002089284320812089039000F02DFA00209B
:101D2000307003986CE70C9800903A4604A920465E
:101D30000B9BFFF71BFF00F01FFA08E0FFE700F026
:101D40001BFA0020039097203070039858E700BFDB
:101D5000FFF79AFB00F009FA224800682030007B68
:101D60002021084000280ED004A8FFF766FE0021BD
:101D70001C4800682030017300F0FEF90020039039
:101D80000A20307023E0029801281AD10B9800280D
:101D90000ED001280DD0022802D0032810D100E077
:101DA00000BF20890F490968098D8843208107E019
:101DB00000BF20890B490968098D0843208100BFB5
:101DC00000BF2089039000F0D7F9002030700398FD
:101DD00016E700001D0000100C000010220000108B
:101DE000230000102C000010FFB583B004461E46EF
:101DF000002C04D196203070002007B0F0BD207870
:101E0000052803D0012030700020F6E700F0ADF97E
:101E10000598002802D001280AD104E021890498FD
:101E2000814321810AE0208904990843208105E04B
:101E300000F0A2F9992030700020DEE700BF0020FA
:101E40000290656845E0A87C002823D0012830D0A6
:101E5000022802D003283AD10EE02089298A0840BE
:101E60000746288AB84206D139462846FFF7FAFDC8
:101E7000012800D102902AE02089298A08400746DB
:101E8000002F06D039462846FFF7ECFD012800D187
:101E900002901CE0288A218988430746288AB84294
:101EA00006D139462846FFF7DDFD012800D1029012
:101EB0000DE0288A218988430746002F06D039463D
:101EC0002846FFF7CFFD012800D1029000BF00BFD8
:101ED0002D68002DB7D100F04FF90298012801D1EB
:101EE000FFF7D2FA00F041F92089019000F044F99F
:101EF00000203070019880E770B504460D46002C34
:101F000003D196202870002070BD2078052803D0CA
:101F1000012028700020F7E700F027F9268900F05B
:101F20002BF9002028703046EEE710B5094802462C
:101F30000C32002106E00023037042600C300C32AA
:101F40004B1CD9B20329F6DB00234360014B024C42
:101F5000236010BD5C0400100C000010FFB583B0BE
:101F600005460F461E46002D04D176203070002015
:101F700007B0F0BD022F03D26F2030700020F7E7CA
:101F80000598042803D2702030700020F0E700F09C
:101F9000ECF8584804680068002804D055480068E8
:101FA00040685449086000F0E7F8002C03D16E2027
:101FB00030700020DCE70195059828180290002079
:101FC00000900BE001990298086002980190059931
:101FD0000298401802900098401C0090781E0099CA
:101FE0008842EFD800210198016025606560276173
:101FF000E7600598A060002030702046B8E770B513
:1020000004460D46002C03D174202870002070BDBA
:1020100000F0ABF8206900280BD06668306860607B
:102020002069401E206100F0A7F80020287030468B
:10203000EDE700F0A1F8712028700020E7E770B507
:1020400004460D46002C01D1742070BD002D01D135
:102050007320FAE700F089F8E1682069884203D329
:1020600000F08AF87220F0E76068286065602069F7
:10207000401C206100F080F80020E6E770B50546BE
:102080000C46002D01D1742070BD002C01D17520AB
:10209000FAE700F06AF82868206068686060A8685D
:1020A000A060E868E0602869206100F065F82169B7
:1020B000E068401A60610020E6E70F4800210DE06B
:1020C0004A1C14235A430C4BD2184260002202606F
:1020D0000261C260826014304A1C91B20129EFDBB8
:1020E0000022426002600261C2608260024A014BCB
:1020F0001A6070473C0000104C09001010B5002811
:1021000019DA624A03071B0F083B9B089B00D25851
:102110008307DC0EFF23A3409A438B071B0E840723
:10212000E40EA3401A43594B0407240F083CA408AB
:10213000A4001A5118E0564A03231B02D218830840
:102140009B00D2588307DC0EFF23A3409A438B07E2
:102150001B0E8407E40EA3401A434D4B03242402B4
:102160001B198408A4001A5110BD72B649480068B2
:10217000401C48490860704746480068002804D061
:1021800044480068401E43490860424800680028EF
:1021900000D162B6704710B5FFF714F9FFF702FAE5
:1021A000FFF71EF910BD10B50120C04300F067F81D
:1021B000FF210120C043FFF7A1FF0020C04300F032
:1021C0005EF880210020C043FFF798FFC821324805
:1021D000006800F061FB3149486107200861FDF7A4
:1021E00079FF10BD0120000728491C39486070475D
:1021F00070B5044600BFD008C00001252D0605605B
:10220000274E051F28462E600026051F28462E60F3
:10221000051F28462E60051F28462E60051F2846EC
:102220002E60051F28462C60051F28462960051FC3
:1022300028462E60051F28462E60051F28462E6062
:10224000051F28462E60051F28462E60051F2846BC
:102250002E60051F28462E60051F28462E60051F8C
:1022600028462E6070BD7047704700BF704700BFA2
:1022700070477047704700BF704770477047C2068D
:10228000D20E01219140024A116070471CED00E01E
:1022900000E100E0480000100000001000E000E055
:1022A0009901000010B5FD48006840210843FB4932
:1022B00008601F2000F0DFFA1E2000F0DCFA1D206D
:1022C00000F0D9FA1C2000F0D6FA10BD10B5002895
:1022D00006D0012826D0022846D0032877D165E011
:1022E000EF4B1B6801248C402340002B09D1012AAD
:1022F00007D1EB4B1B6801248C402343E84C23603F
:102300000FE0E74B1B6801248C402340002B08D0D2
:10231000002A06D1E24B1B6801248C40A343E04C09
:10232000236067E0DF4B1B6801248C402340002BB7
:1023300009D1012A07D1DB4B1B6801248C402343C0
:10234000D84C23600FE0D74B1B6801248C402340FE
:10235000002B08D0002A06D1D24B1C6801238B40E9
:102360009C43D04B1C6045E0CF4B1B6801248C4044
:102370002340002B09D1012A07D1CB4B1B68012434
:102380008C402343C84C23600FE0C74B1B680124DB
:102390008C402340002B08D0002A06D1C24B1B687A
:1023A00001248C40A343C04C236023E0BF4B1B6837
:1023B00001248C402340002B0AD1012A08D1BB4BB9
:1023C0001B6801248C402343B84C236010E010E0CC
:1023D000B64B1B6801248C402340002B08D0002AF8
:1023E00006D1B24B1B6801248C40A343AF4C236041
:1023F00000E000BF00BF10BD10B5002806D00128C6
:1024000026D0022846D0032877D165E0A84BDB6BA5
:1024100001248C402340002B09D1012A07D1A44B71
:10242000DB6B01248C402343A14CE3630FE0A04B02
:10243000DB6B01248C402340002B08D0002A06D1FE
:102440009B4BDB6B01248C40A343994CE36367E017
:10245000984BDB6B01248C402340002B09D1012ACF
:1024600007D1944BDB6B01248C402343914CE363F5
:102470000FE0904BDB6B01248C402340002B08D0F5
:10248000002A06D18B4BDC6B01238B409C43894B8C
:10249000DC6345E0884BDB6B01248C402340002B40
:1024A00009D1012A07D1844BDB6B01248C402343E3
:1024B000814CE3630FE0804BDB6B01248C402340B5
:1024C000002B08D0002A06D17B4BDB6B01248C400B
:1024D000A343794CE36323E0784BDB6B01248C400E
:1024E0002340002B0AD1012A08D1744BDB6B012455
:1024F0008C402343714CE36310E010E06F4BDB6BC7
:1025000001248C402340002B08D0002A06D16B4BBD
:10251000DB6B01248C40A343684CE36300E000BF05
:1025200000BF10BD70B5049C002806D0012838D02B
:1025300002286AD003287BD19CE0002A18D1584D8C
:102540006D6801268E40B543554E7560002B07D14E
:102550003546AD6801268E40B543514EB5600EE05C
:102560004F4DAD6801268E4035434D4EB56006E0B7
:102570004B4D6D6801268E403543494E7560002CE9
:1025800007D1474DED6801268E40B543444EF560B6
:1025900006E0434DED6801268E403543404EF56020
:1025A000B0E0002A18D13F4D6D6801268E40B5433A
:1025B0003C4E7560002B07D13546AD6801268E4034
:1025C000B543384EB5600EE0364DAD6801268E40FD
:1025D0003543344EB56006E0324D6D6801268E40BD
:1025E0003543304E7560002C07D12E4DED68012625
:1025F0008E40B5432B4EF56006E02A4DED6801266E
:102600008E403543274EF5607CE0002A19D1264DD7
:102610006D6801268E40B543234E7560002B08D1AE
:102620003546AD6801268E40B5431F4EB5600FE0BC
:1026300067E01D4DAD6801268E4035431A4EB560EA
:1026400006E0194D6D6801268E403543164E7560C3
:10265000002C07D1144DED6801268E40B543124E73
:10266000F56006E0104DED6801268E4035430E4EB4
:10267000F56047E0002A2BD10C4D6D6801268E4095
:10268000B5430A4E7560002B1AD13546AD68012658
:102690008E40B543054EB56021E0000080800440C7
:1026A00000800050008001500080025000800350E4
:1026B000C03F0050C03F0150C03F0250C03F0350D8
:1026C000704DAD6801268E4035436E4EB56006E014
:1026D0006C4D6D6801268E4035436A4E7560002C46
:1026E00007D1684DED6801268E40B543654EF56013
:1026F00006E0644DED6801268E403543614EF5607D
:1027000000E000BF00BF70BD002806D001280CD03B
:10271000022812D0032820D117E05B4A1269012356
:102720008B401A43584B1A6118E0584A126901232A
:102730008B401A43554B1A6110E0554A1269012328
:102740008B401A43524B1A6108E04E4A126901232A
:102750008B401A434B4B1A6100E000BF00BF70472B
:10276000002806D001280CD0022812D0032820D13E
:1027700017E0454A126901238B409A43424B1A6184
:1027800018E0424A126901238B409A433F4B1A6179
:1027900010E03F4A126901238B409A433C4B1A6177
:1027A00008E0384A136901228A409343354A13618D
:1027B00000E000BF00BF704710B502460020002AAD
:1027C00006D0012A0DD0022A14D0032A24D11AE0FF
:1027D0002D4B9B6901248C402340002B00D001200D
:1027E0001BE02A4B9B6901248C402340002B00D026
:1027F000012012E0264B9B6901248C402340002BD2
:1028000000D0012009E01F4B9B6901248C4023402C
:10281000002B00D0012000E000BF00BF10BD002849
:1028200006D001280CD0022812D0032820D117E0AE
:10283000154AD26901238B401A43134BDA6118E021
:10284000124AD26901238B401A43104BDA6110E01F
:102850000F4AD26901238B401A430D4BDA6108E01D
:10286000084AD26901238B401A43064BDA6100E023
:1028700000BF00BF7047C206D20E01219140054A39
:1028800011607047008003500080005000800150AC
:102890000080025000E100E030B50B460146002008
:1028A0002022012409E00D46D5409D4205D31D4656
:1028B0009540491B2546954040191546521E002D4E
:1028C000F1DC30BD03460B439B0703D009E008C988
:1028D000121F08C0042AFAD203E00B780370401CD0
:1028E000491C521EF9D27047D2B201E00270401C5E
:1028F000491EFBD270470022F6E710B513460A4680
:1029000004461946FFF7F0FF204610BD064C01258E
:10291000064E05E0E36807CC2B430C3C9847103487
:10292000B442F7D3FDF7D0FB742A0000942A0000CC
:1029300030B47446641E2578641CAB4204D3635DD6
:102940005B00E31830BC18471D46F8E702E008C8F2
:10295000121F08C1002AFAD170477047002001E019
:1029600001C1121F002AFBD1704701020408102088
:10297000408000000100020001000300010002008D
:102980000100040001000200010003000100020038
:102990000100050001000200010003000100020027
:1029A0000100040001000200010003000100020018
:1029B0000100060001000200010003000100020006
:1029C00001000400010002000100030001000200F8
:1029D00001000500010002000100030001000200E7
:1029E00001000400010002000100030001000200D8
:1029F00001000700010002000100030001000200C5
:102A000001000400010002000100030001000200B7
:102A100001000500010002000100030001000200A6
:102A20000100040001000200010003000100020097
:102A30000100060001000200010003000100020085
:102A40000100040001000200010003000100020077
:102A50000100050001000200010003000100020066
:102A60000100040001000200010003000100020057
:102A700001000000942A0000000000104C0000003B
:102A80004C290000E02A00004C0000108C0B0000D4
:102A90005C290000006CDC02000000000000000067
:102AA0000000000000000000000000000000000026
:102AB0000000000000000000000000000000000016
:102AC0000000000000000000000000000000000006
:102AD00000000000000000000000000000000000F6
:04000005000000C136
:00000001FF
