:020000040000FA
:1000000068020010650100006D0100006F01000032
:1000100000000000000000000000000000000000E0
:10002000000000000000000000000000710100005E
:1000300000000000000000007301000075010000D6
:1000400077010000770100007701000077010000D0
:1000500077010000770100007701000077010000C0
:1000600077010000770100007701000077010000B0
:1000700077010000770100007701000077010000A0
:100080007701000077010000770100007701000090
:100090007701000077010000770100007701000080
:1000A0007701000077010000770100007701000070
:1000B0007701000077010000770100007701000060
:1000C00000F002F800F03EF80CA030C80838241800
:1000D0002D18A246671EAB4654465D46AC4201D180
:1000E00000F030F87E460F3E0FCCB6460126334274
:1000F00000D0FB1AA246AB463343184768080000FD
:1001000088080000103A02D378C878C1FAD852079C
:1001100001D330C830C101D504680C6070470000BD
:100120000023002400250026103A01D378C1FBD813
:10013000520700D330C100D50B6070471FB51FBDFB
:1001400010B510BD00F0B3F81146FFF7F7FF00F04F
:1001500023F800F0CBF803B4FFF7F2FF03BC00F084
:10016000EBFB00000748804707480047FEE7FEE733
:10017000FEE7FEE7FEE7FEE704480549034A054BB4
:100180007047000071040000C1000000680000100A
:1001900068020010680000104B20C00100F010F849
:1001A000052000F0D9F909E0052000F0F1FA84B249
:1001B000201200F057F8E0B200F054F8F4E7000025
:1001C00070B5044600BF34480068012109040843A3
:1001D000314908603148406AC008C0002F49486270
:1001E0000846406A012108432C4948620846806A53
:1001F000C008C00088620846806A01210843274978
:100200008862254800680121090488432249086062
:1002100001208861084600680121090308431E493E
:10022000086083201E49C8601E49096808092146E4
:1002300000F0D0FA0546280A19494860E8B208607B
:100240000320C860072088600846466970BD00BF6B
:1002500013484069C007C00F0028F9D01048006853
:10026000C0B2704700BF0E494969202211400029E1
:10027000F9D00B49086070470BE000BF084A52698B
:1002800020231A40002AF9D00278054B1A60401C3E
:10029000491E0029F1D1704780800440804004400D
:1002A000008000400000001070477047704775469E
:1002B00000F03EFBAE46050069465346C008C0004C
:1002C000854618B020B5FFF757FF60BC00274908E6
:1002D000B6460026C0C5C0C5C0C5C0C5C0C5C0C5DE
:1002E000C0C5C0C5403D49008D46704710B50446A5
:1002F000C046C0462046FFF72EFF10BDFFFFFFFFA0
:1003000010B500248048406AC005000F030000F0CB
:100310001AFB10090B0D0F11131517191B1D1F21A7
:100320002325272900241DE0784C1BE0784C19E098
:10033000784C17E0784C15E0784C13E0784C11E0DD
:10034000784C0FE0784C0DE0784C0BE0784C09E0ED
:10035000784C07E0784C05E0784C03E0784C01E0FD
:10036000784C00BF00BF6848406AC006800E811C00
:10037000204600F02FFA044663484030006B8007A7
:10038000800F002806D0012808D0022823D0032897
:1003900063D123E06C486D4908605EE05A48403004
:1003A00000688007800F002806D0012808D00228A6
:1003B0000AD003280DD108E063486449086008E0CA
:1003C00063486249086004E000BF00205F4908609C
:1003D00000BF00BF41E05D4804603EE04A48403055
:1003E00000688007800F002806D0012819D0022855
:1003F0002CD003282FD12AE043488068FF21813187
:100400000840002803D050485049086008E03E48A2
:100410008068C006C00E401C4B4948434B490860E9
:1004200019E039488068FF2181310840002803D055
:1004300047484649086008E033488068C006C00E57
:10044000401C434948434149086004E000BF002084
:100450003E49086000BF00BF00BF00BF2A484030CF
:10046000816B3A48006800F0B5F93849086010BD62
:1004700008B53848806B20218843364988630020BE
:1004800021490862009003E000BF0098401C0090E2
:100490000098C828F8D301201B4940310860486003
:1004A000002048600120486000BF17484030406885
:1004B000C007C00F0028F8D02420134988602548C1
:1004C000806B802188432349886300BF0E48C06841
:1004D000C007C00F0028F9D003200B494031086342
:1004E00001204863002048630120486300BF06489C
:1004F0004030406BC007C00F0028F8D001200249EF
:100500004031886308BD00000080044020A107003E
:1005100000350C00E0C81000C05C1500006A18002F
:1005200040771B0080841E00C0912100009F2400A2
:1005300040AC2700E032290020402C00604D2F0005
:1005400000D43000C0304600001BB700000000108F
:10055000809698000082044000B5072800DD00BDA9
:100560009649896B10229143944A91639449096892
:10057000012252031143924A116011460968012277
:10058000120411438E4A1160030000F0DCF90805E3
:100590001E37506E8CAAC3E18A49496BC908C9004D
:1005A000884A51631146496B02221143854A5163BF
:1005B0001146496B18229143824A51631146496B97
:1005C000802291437F4A5163C3E07E49896BC90809
:1005D000C9007C4A91631146896B02221143794A12
:1005E00091631146896B18229143764A91631146B3
:1005F000896B80229143734A9163AAE07149C96B68
:10060000C908C9006F4AD1631146C96B0222114360
:100610006C4AD1631146C96B18229143694AD16370
:100620001146C96B80229143664AD16391E06549C6
:1006300040310968C908C900624A40321160114658
:100640000968022211435F4A40321160114609686D
:10065000182291435B4A403211601146096880229A
:100660009143584A4032116073E05649403109695C
:10067000C908C900534A4032116111460969022272
:100680001143504A403211611146096918229143C1
:100690004C4A403211611146096980229143494A0E
:1006A0004032116155E0474940314969C908C900E4
:1006B000444A403251611146496901221143414A7D
:1006C0004032516111464969182291433D4A4032F6
:1006D000516111464969802291433A4A4032516141
:1006E00037E03849C96AC908C900364AD16211469B
:1006F000C96A01221143334AD1621146C96A1822DC
:100700009143304AD1621146C96A802291432D4AF1
:10071000D1621EE02B4940318969C908C900294AC4
:10072000403291611146896901221143254A4032C4
:1007300091611146896918229143224A40329161A0
:1007400011468969802291431E4A4032916100E03E
:1007500000BF00BF1B494039C969C908C900194A0F
:10076000403AD1611146C96902221143154A403A03
:10077000D16113490968012212049143104A1160A2
:1007800001218140104A1143104A116000BFE6E682
:10079000014600BF00BF0D4A10328B00D258D20F65
:1007A000D207002AF7D0094A10328B00D25812041F
:1007B000900D074A4243900A7047000000820440AF
:1007C00080800440404004400018000A00C00140FE
:1007D000E40C0000002203098B422CD3030A8B4255
:1007E00011D300239C464EE003460B433CD4002229
:1007F00043088B4231D303098B421CD3030A8B423B
:1008000001D394463FE0C3098B4201D3CB01C01A08
:10081000524183098B4201D38B01C01A52414309D3
:100820008B4201D34B01C01A524103098B4201D3C1
:100830000B01C01A5241C3088B4201D3CB00C01A2E
:10084000524183088B4201D38B00C01A52414308A6
:100850008B4201D34B00C01A5241411A00D20146CB
:100860005241104670475DE0CA0F00D04942031064
:1008700000D34042534000229C4603098B422DD3B3
:10088000030A8B4212D3FC22890112BA030A8B425B
:100890000CD3890192118B4208D3890192118B42AA
:1008A00004D389013AD0921100E08909C3098B422F
:1008B00001D3CB01C01A524183098B4201D38B0172
:1008C000C01A524143098B4201D34B01C01A524115
:1008D00003098B4201D30B01C01A5241C3088B425A
:1008E00001D3CB00C01A524183088B4201D38B0045
:1008F000C01A5241D9D243088B4201D34B00C01ACF
:100900005241411A00D20146634652415B101046E3
:1009100001D34042002B00D54942704763465B102B
:1009200000D3404201B50020C046C04602BD0000D1
:10093000004870470400001001491820ABBEFEE7D4
:1009400026000200704730B47446641E2578641C8B
:10095000AB4204D3635D5B00E31830BC18471D460F
:10096000F8E7000084090000000000100400000007
:100970000401000088090000040000106402000067
:080980002001000080F0FA02E2
:04000005000000C136
:00000001FF
