:020000040000FA
:100000006802001069010000710100007301000026
:1000100000000000000000000000000000000000E0
:10002000000000000000000000000000750100005A
:1000300000000000000000007701000079010000CE
:100040007B0100007B0100007B0100007B010000C0
:100050007B0100007B0100007B0100007B010000B0
:100060007B0100007B0100007B0100007B010000A0
:100070007B0100007B0100007B0100007B01000090
:100080007B0100007B0100007B0100007B01000080
:100090007B0100007B0100007B0100007B01000070
:1000A0007B0100007B0100007B0100007B01000060
:1000B0007B0100007B0100007B0100007B01000050
:1000C00000F002F800F040F80CA030C808382418FE
:1000D0002D18A246671EAB4654465D46AC4201D180
:1000E00000F032F87E460F3E0FCCB6460126334272
:1000F00000D0FB1AA246AB46334318472C0600003B
:100100004C060000103A02D378C878C1FAD85207DA
:1001100001D330C830C101D504680C6070470000BD
:100120000023002400250026103A01D378C1FBD813
:10013000520700D330C100D50B6070471FB5C046D1
:10014000C0461FBD10B510BD00F097F81146FFF76F
:10015000F5FF00F061F800F0AFF803B4FFF7F2FF2D
:1001600003BC00F0B3F80000074880470748004789
:10017000FEE7FEE7FEE7FEE7FEE7FEE70448054987
:10018000034A054B7047000067040000C1000000EF
:100190006800001068020010680000103148006814
:1001A0000121090408432F4908602F48806BC008CB
:1001B000C0002D4988630846806B012108432A4905
:1001C00088630846C06BC008C000C8630846C06B9F
:1001D000012108432449C863224800680121090419
:1001E00088432049086021480068012108431F49CD
:1001F00008601F48C06B012108431D49C8631B48A4
:10020000006802210843194908601948C06B02219F
:1002100008431749C8637047FFF7C0FF00F090F923
:100220001FE07D20C00000F097F91148C06B400826
:1002300040000F49C8630846C06B022108430C49BF
:10024000C8637D20C00000F087F90948C06B012118
:1002500008430749C8630846C06B02218843044924
:10026000C863DEE7808004404040044000800150C5
:10027000C03F0150704770477047754600F022F844
:10028000AE46050069465346C008C000854618B012
:1002900020B5FFF773FF60BC00274908B64600266B
:1002A000C0C5C0C5C0C5C0C5C0C5C0C5C0C5C0C526
:1002B000403D49008D4670470446C046C046204632
:1002C000FFF74BFF00487047040000100149182059
:1002D000ABBEFEE726000200704730B47446641ED1
:1002E0002578641CAB4204D3635D5B00E31830BC2B
:1002F00018471D46F8E7000000000000FFFFFFFF61
:1003000010B500247A48406AC005000F0300FFF7CB
:10031000E4FF10090B0D0F11131517191B1D1F21D9
:100320002325272900241DE0724C1BE0724C19E0A4
:10033000724C17E0724C15E0724C13E0724C11E0F5
:10034000724C0FE0724C0DE0724C0BE0724C09E005
:10035000724C07E0724C05E0724C03E0724C01E015
:10036000724C00BF00BF6248406AC006800E811C0C
:10037000204600F02BF904465D484030006B8007B2
:10038000800F06D0012808D0022822D003285FD190
:1003900022E06748674908605AE0554840300068E5
:1003A0008007800F06D0012808D002280AD0032831
:1003B0000DD108E05E485F49086008E05E485D498D
:1003C000086004E000BF00205A49086000BF00BF79
:1003D0003EE0584804603BE04548403000688007F4
:1003E000800F06D0012818D002282AD003282DD14A
:1003F00028E03F488068FF218131084203D04C4803
:100400004C49086008E03A488068C006C00E401CAD
:10041000474948434749086018E035488068FF214C
:100420008131084203D044484249086008E030481E
:100430008068C006C00E401C3F4948433D490860E3
:1004400004E000BF00203B49086000BF00BF00BFC0
:1004500000BF27484030816B3648006800F0B6F88E
:100460003449086010BD3549896B20229143334AD5
:10047000916300211E4A1162002001E000BF401C70
:10048000C828FBD301211A4A403211605160002173
:1004900051600121516000BF154940314968C907C9
:1004A000C90FF9D02421124A91602449896B802216
:1004B0009143224A916300BF0D49C968C907C90F1A
:1004C000FAD003210A4A403211630121516300210D
:1004D00051630121516300BF05494031496BC90790
:1004E000C90FF9D00121024A4032916370470000E0
:1004F0000080044020A1070000350C00E0C8100077
:10050000C05C1500006A180040771B0080841E0044
:10051000C0912100009F240040AC2700E032290058
:1005200020402C00604D2F0000D43000C030460029
:10053000001BB70000000010809698000082044065
:100540001E480068802108431C49086001201C499E
:10055000086004204861704710B50446022018491D
:1005600048607D21C9001748006800F02FF8401E40
:100570001349C8600846846101204860486000BF94
:100580000F484068C007C00FFAD110BD10B504462F
:1005900002200B4948600C490A48006800F016F830
:1005A000401E0749C860084684610120486000BFBA
:1005B00003484068C007C00FFAD110BD80800440D6
:1005C00000C000400000001040420F00002203095C
:1005D0008B422CD3030A8B4211D300239C464EE05E
:1005E00003460B433CD4002243088B4231D303091A
:1005F0008B421CD3030A8B4201D394463FE0C309CC
:100600008B4201D3CB01C01A524183098B4201D3E3
:100610008B01C01A524143098B4201D34B01C01ACE
:10062000524103098B4201D30B01C01A5241C30846
:100630008B4201D3CB00C01A524183088B4201D3B5
:100640008B00C01A524143088B4201D34B00C01AA1
:100650005241411A00D201465241104670475DE0B6
:10066000CA0F00D04942031000D340425340002239
:100670009C4603098B422DD3030A8B4212D3FC22E2
:10068000890112BA030A8B420CD3890192118B4261
:1006900008D3890192118B4204D389013AD0921177
:1006A00000E08909C3098B4201D3CB01C01A524132
:1006B00083098B4201D38B01C01A524143098B42FB
:1006C00001D34B01C01A524103098B4201D30B01E4
:1006D000C01A5241C3088B4201D3CB00C01A524109
:1006E00083088B4201D38B00C01A5241D9D24308F0
:1006F0008B4201D34B00C01A5241411A00D201462D
:10070000634652415B10104601D34042002B00D596
:100710004942704763465B1000D3404201B5002058
:10072000C046C04602BD000048070000000000109F
:1007300004000000040100004C0700000400001049
:0C074000640200002001000080F0FA02BA
:04000005000000C136
:00000001FF
