:020000040000FA
:1000000068020010650100006D0100006F01000032
:1000100000000000000000000000000000000000E0
:10002000000000000000000000000000710100005E
:1000300000000000000000007301000075010000D6
:1000400077010000770100007701000077010000D0
:1000500077010000770100007701000077010000C0
:1000600077010000770100007701000077010000B0
:1000700077010000770100007701000077010000A0
:100080007701000077010000770100007701000090
:100090007701000077010000770100007701000080
:1000A0007701000077010000770100007701000070
:1000B0007701000077010000770100007701000060
:1000C00000F002F800F03EF80CA030C80838241800
:1000D0002D18A246671EAB4654465D46AC4201D180
:1000E00000F030F87E460F3E0FCCB6460126334274
:1000F00000D0FB1AA246AB46334318476C070000FA
:100100008C070000103A02D378C878C1FAD8520799
:1001100001D330C830C101D504680C6070470000BD
:100120000023002400250026103A01D378C1FBD813
:10013000520700D330C100D50B6070471FB51FBDFB
:1001400010B510BD00F040FB1146FFF7F7FF00F0BF
:100150000AFB00F058FB03B4FFF7F2FF03BC00F00A
:100160005FFB00000748804707480047FEE7FEE7BF
:10017000FEE7FEE7FEE7FEE704480549034A054BB4
:100180007047000071040000C1000000680000100A
:100190006802001068000010002203098B422CD373
:1001A000030A8B4211D300239C464EE003460B43C7
:1001B0003CD4002243088B4231D303098B421CD329
:1001C000030A8B4201D394463FE0C3098B4201D31B
:1001D000CB01C01A524183098B4201D38B01C01A53
:1001E000524143098B4201D34B01C01A52410309CA
:1001F0008B4201D30B01C01A5241C3088B4201D379
:10020000CB00C01A524183088B4201D38B00C01A25
:10021000524143088B4201D34B00C01A5241411A4C
:1002200000D201465241104670475DE0CA0F00D02F
:100230004942031000D34042534000229C46030928
:100240008B422DD3030A8B4212D3FC22890112BAAE
:10025000030A8B420CD3890192118B4208D3890186
:1002600092118B4204D389013AD0921100E089099E
:10027000C3098B4201D3CB01C01A524183098B427F
:1002800001D38B01C01A524143098B4201D34B0168
:10029000C01A524103098B4201D30B01C01A5241CB
:1002A000C3088B4201D3CB00C01A524183088B4252
:1002B00001D38B00C01A5241D9D243088B4201D3DB
:1002C0004B00C01A5241411A00D2014663465241C6
:1002D0005B10104601D34042002B00D549427047C5
:1002E00063465B1000D3404201B50020C046C046C3
:1002F00002BD70477047704770470000FFFFFFFF67
:1003000010B500248048406AC005000F030000F0CB
:100310008DFA10090B0D0F11131517191B1D1F2135
:100320002325272900241DE0784C1BE0784C19E098
:10033000784C17E0784C15E0784C13E0784C11E0DD
:10034000784C0FE0784C0DE0784C0BE0784C09E0ED
:10035000784C07E0784C05E0784C03E0784C01E0FD
:10036000784C00BF00BF6848406AC006800E811C00
:100370002046FFF711FF044663484030006B8007BA
:10038000800F002806D0012808D0022823D0032897
:1003900063D123E06C486D4908605EE05A48403004
:1003A00000688007800F002806D0012808D00228A6
:1003B0000AD003280DD108E063486449086008E0CA
:1003C00061486249086004E000BF00205F4908609E
:1003D00000BF00BF41E05D4804603EE04A48403055
:1003E00000688007800F002806D0012819D0022855
:1003F0002CD003282FD12AE043488068FF21813187
:100400000840002803D050485049086008E03E48A2
:100410008068C006C00E401C4B4948434B490860E9
:1004200019E039488068FF2181310840002803D055
:1004300045484649086008E033488068C006C00E59
:10044000401C414948434149086004E000BF002086
:100450003E49086000BF00BF00BF00BF2A484030CF
:10046000816B3A480068FFF797FE3849086010BD75
:1004700008B53748806B20218843354988630020C0
:1004800021490862009003E000BF0098401C0090E2
:100490000098C828F8D301201B4940310860486003
:1004A000002048600120486000BF17484030406885
:1004B000C007C00F0028F8D02420134988602448C2
:1004C000806B802188432249886300BF0E48C06842
:1004D000C007C00F0028F9D003200B494031086342
:1004E00001204863002048630120486300BF06489C
:1004F0004030406BC007C00F0028F8D001200249EF
:100500004031886308BD00000080044020A107003E
:1005100000350C00E0C81000C05C1500006A18002F
:1005200040771B0080841E00C0912100009F2400A2
:1005300040AC2700E032290020402C00604D2F0005
:1005400000D43000C0304600001BB700000000108F
:10055000008204400221924A51607D21C900D1608D
:100560003021414391610121116004215161012138
:10057000516000BF8A494968C907C90F0029F9D1EC
:1005800070470221864A51600021D16030214143E9
:10059000916101211160042151610121516000BF6D
:1005A0007F494968C907C90F0029F9D170477D49BA
:1005B000C96B0F22120211407A4AD1631146C96BEE
:1005C0000143D16370477749C96BC8B2704700B522
:1005D000FF20FFF7ECFF002073490860734874495F
:1005E00008600120FFF7CDFF7048724908600220C3
:1005F000FFF7C7FF0F2000026F490860FFF7E3FF16
:10060000034602E0FFF7DFFF034680201840002882
:10061000F8D16849086065486749086000BD30B591
:1006200005460C46002C01D0FFF7D1FF00205E49A3
:1006300008605F4908600120FFF7A3FF2846FFF725
:10064000B6FF0120FFF79DFF58485A490860022075
:10065000FFF797FF00205749086030BD10B50446EA
:10066000FFF7B5FF51485049086000205049086025
:100670000120FFF786FF2046FFF799FF0120FFF7D3
:1006800080FF4A484B4908600220FFF77AFF0020AC
:100690004849086010BD00B500213820FFF7BFFFB2
:1006A0000520FFF757FF00213820FFF7B8FF05208E
:1006B000FFF750FF00213820FFF7B1FF0520FFF7BB
:1006C00049FF01213820FFF7AAFF01210820FFF789
:1006D000A6FF01210846FFF7A2FF01210620FFF730
:1006E0009EFF01210C20FFF79AFF00BD70B5064662
:1006F0000C4635072D0FE407E40F002C01D04020F5
:1007000005438020054301212846FFF788FF70BD7F
:1007100070B505460E46144631462846FFF7E6FFFB
:100720002046FFF79BFF70BDF7B50546164600272C
:1007300001E0781CC7B2F05D1F28FADC00240FE04E
:10074000325D28466B1CDDB20199FFF7E1FF102DE9
:1007500004D100250121019848400190601CC4B2D9
:10076000BC42EDDBFEBD1148134908600D49C8636A
:10077000124800688021084310490860FFF78BFF8A
:100780000F4A00210846FFF7CFFF0520FFF7E2FEE2
:100790000C4A01210020FFF7C7FF00BFFEE7000061
:1007A00000C00040C03F025000100250FF0F000088
:1007B0000008025000040250008002508080044073
:1007C0004808000057080000754600F025F8AE46BE
:1007D000050069465346C008C000854618B020B5DC
:1007E000FFF7CAFC60BC00274908B6460026C0C512
:1007F000C0C5C0C5C0C5C0C5C0C5C0C5C0C5403DD9
:1008000049008D46704710B50446C046C046204694
:10081000FFF7A1FC10BD0000004870470400001065
:1008200001491820ABBEFEE72600020030B4744632
:10083000641E2578641CAB4204D3635D5B00E3183F
:1008400030BC18471D46F8E7202048656C6C6F20C7
:10085000576F726C6421004C504331313134204465
:100860006973706C61792100880800000000001035
:1008700004000000040100008C08000004000010C7
:0C088000640200002001000000879303C8
:04000005000000C136
:00000001FF
