:020000040000FA
:1000000068020010650100006D0100006F01000032
:1000100000000000000000000000000000000000E0
:10002000000000000000000000000000710100005E
:1000300000000000000000007301000075010000D6
:1000400077010000770100007701000077010000D0
:1000500077010000770100007701000077010000C0
:1000600077010000770100007701000077010000B0
:1000700077010000770100007701000077010000A0
:100080007701000077010000770100007701000090
:100090007701000077010000770100007701000080
:1000A000B90100007701000077010000770100002E
:1000B0007701000077010000770100007701000060
:1000C00000F002F800F03EF80CA030C80838241800
:1000D0002D18A246671EAB4654465D46AC4201D180
:1000E00000F030F87E460F3E0FCCB6460126334274
:1000F00000D0FB1AA246AB4633431847B8010000B4
:10010000D8010000103A02D378C878C1FAD8520753
:1001100001D330C830C101D504680C6070470000BD
:100120000023002400250026103A01D378C1FBD813
:10013000520700D330C100D50B6070471FB51FBDFB
:1001400010B510BD00F075F81146FFF7F7FF00F08D
:1001500049F800F08DF803B4FFF7F2FF03BC00F09C
:1001600093F800000748804707480047FEE7FEE78E
:10017000FEE7FEE7FEE7FEE704480549034A054BB4
:100180007047000071040000C1000000680000100A
:100190006802001068000010002009E0002101E062
:1001A0004A1C91B2FF22F5329142F9DB421C90B217
:1001B0001A4A9042F2DB704710B51948194909787C
:1001C000890040580004840D174961430846C91747
:1001D000890D09188C12201200F052FBE0B200F0D9
:1001E0004FFB10BD05200F4908704B20C00100F0E7
:1001F000F5FA0C48007800F0AFF90A48007800F0F2
:10020000D5FA0AE0FFF7C8FF054810380068012159
:1002100009060843024910390860F3E78813000013
:1002200010C0014004000010E40C0000704770474B
:100230007047754600F024F8AE46050069465346FF
:10024000C008C000854618B020B5FFF795FF60BC18
:1002500000274908B6460026C0C5C0C5C0C5C0C5F0
:10026000C0C5C0C5C0C5C0C5403D49008D4670472A
:1002700010B50446C046C0462046FFF76CFF10BDCF
:10028000004870470800001001491820ABBEFEE787
:1002900026000200704730B47446641E2578641C42
:1002A000AB4204D3635D5B00E31830BC18471D46C6
:1002B000F8E70000200A000000000010080000001D
:1002C00004010000280A000008000010600200007D
:1002D00020010000000000000000000000000000FD
:1002E000000000000000000000000000000000000E
:1002F000000000000000000000000000FFFFFFFF02
:1003000010B500248048406AC005000F0300FFF7C5
:10031000C2FF10090B0D0F11131517191B1D1F21FB
:100320002325272900241DE0784C1BE0784C19E098
:10033000784C17E0784C15E0784C13E0784C11E0DD
:10034000784C0FE0784C0DE0784C0BE0784C09E0ED
:10035000784C07E0784C05E0784C03E0784C01E0FD
:10036000784C00BF00BF6848406AC006800E811C00
:10037000204600F0A7FA044663484030006B80072F
:10038000800F002806D0012808D0022823D0032897
:1003900063D123E06C486D4908605EE05A48403004
:1003A00000688007800F002806D0012808D00228A6
:1003B0000AD003280DD108E063486449086008E0CA
:1003C00063486249086004E000BF00205F4908609C
:1003D00000BF00BF41E05D4804603EE04A48403055
:1003E00000688007800F002806D0012819D0022855
:1003F0002CD003282FD12AE043488068FF21813187
:100400000840002803D050485049086008E03E48A2
:100410008068C006C00E401C4B4948434B490860E9
:1004200019E039488068FF2181310840002803D055
:1004300047484649086008E033488068C006C00E57
:10044000401C434948434149086004E000BF002084
:100450003E49086000BF00BF00BF00BF2A484030CF
:10046000816B3A48006800F02DFA3849086010BDE9
:1004700008B53848806B20218843364988630020BE
:1004800021490862009003E000BF0098401C0090E2
:100490000098C828F8D301201B4940310860486003
:1004A000002048600120486000BF17484030406885
:1004B000C007C00F0028F8D02420134988602548C1
:1004C000806B802188432349886300BF0E48C06841
:1004D000C007C00F0028F9D003200B494031086342
:1004E00001204863002048630120486300BF06489C
:1004F0004030406BC007C00F0028F8D001200249EF
:100500004031886308BD00000080044020A107003E
:1005100000350C00E0C81000C05C1500006A18002F
:1005200040771B0080841E00C0912100009F2400A2
:1005300040AC2700E032290020402C00604D2F0005
:1005400000D43000C0304600001BB700000000108F
:10055000809698000082044000B5072800DD00BDA9
:100560009849896B10229143964A9163964909688C
:10057000012252031143944A116011460968012275
:1005800012041143904A11600300FFF784FE08052E
:100590001E37506E8CAAC3E18C49496BC908C9004B
:1005A0008A4A51631146496B02221143874A5163BB
:1005B0001146496B18229143844A51631146496B95
:1005C00080229143814A5163C3E08049896BC90805
:1005D000C9007E4A91631146896B022211437B4A0E
:1005E00091631146896B18229143784A91631146B1
:1005F000896B80229143754A9163AAE07349C96B64
:10060000C908C900714AD1631146C96B022211435E
:100610006E4AD1631146C96B182291436B4AD1636C
:100620001146C96B80229143684AD16391E06749C2
:1006300040310968C908C900644A40321160114656
:10064000096802221143614A40321160114609686B
:10065000182291435D4A4032116011460968802298
:1006600091435A4A4032116073E058494031096958
:10067000C908C900554A4032116111460969022270
:100680001143524A403211611146096918229143BF
:100690004E4A4032116111460969802291434B4A0A
:1006A0004032116155E0494940314969C908C900E2
:1006B000464A403251611146496901221143434A79
:1006C0004032516111464969182291433F4A4032F4
:1006D000516111464969802291433C4A403251613F
:1006E00037E03A49C96AC908C900384AD162114697
:1006F000C96A01221143354AD1621146C96A1822DA
:100700009143324AD1621146C96A802291432F4AED
:10071000D1621EE02D4940318969C908C9002B4AC0
:10072000403291611146896901221143274A4032C2
:1007300091611146896918229143244A403291619E
:100740001146896980229143204A4032916100E03C
:1007500000BF00BF1C4909680122120491431A4AD4
:100760001160012181400322D2021143184A116015
:1007700000BFF4E6014600BF154A126801231B06BC
:100780001A43134B1A6000BF114A10328B00D25823
:10079000D20FD207002AF7D00D4A10328B00D25860
:1007A0001204900D0B4A4243900A70470146012003
:1007B0008840074AD060182001228240064B1A6008
:1007C00000BF7047008204408080044040400440E5
:1007D00000C00140E40C000000E100E070B50446F8
:1007E00000BF34480068012109040843314908600A
:1007F0003148406AC008C0002F4948620846406A34
:10080000012108432C4948620846806AC008C0009C
:1008100088620846806A0121084327498862254882
:100820000068012109048843224908600120886189
:10083000084600680121090308431E490860832017
:100840001E49C8601E4909680809214600F03AF8A7
:100850000546280A19494860E8B208600320C860C4
:10086000072088600846466970BD00BF134840698C
:10087000C007C00F0028F9D010480068C0B2704708
:1008800000BF0E494969202211400029F9D00B49C7
:10089000086070470BE000BF084A526920231A40E5
:1008A000002AF9D00278054B1A60401C491E002925
:1008B000F1D17047808004408040044000800040B7
:1008C00000000010002203098B422CD3030A8B4244
:1008D00011D300239C464EE003460B433CD4002238
:1008E00043088B4231D303098B421CD3030A8B424A
:1008F00001D394463FE0C3098B4201D3CB01C01A18
:10090000524183098B4201D38B01C01A52414309E2
:100910008B4201D34B01C01A524103098B4201D3D0
:100920000B01C01A5241C3088B4201D3CB00C01A3D
:10093000524183088B4201D38B00C01A52414308B5
:100940008B4201D34B00C01A5241411A00D20146DA
:100950005241104670475DE0CA0F00D04942031073
:1009600000D34042534000229C4603098B422DD3C2
:10097000030A8B4212D3FC22890112BA030A8B426A
:100980000CD3890192118B4208D3890192118B42B9
:1009900004D389013AD0921100E08909C3098B423E
:1009A00001D3CB01C01A524183098B4201D38B0181
:1009B000C01A524143098B4201D34B01C01A524124
:1009C00003098B4201D30B01C01A5241C3088B4269
:1009D00001D3CB00C01A524183088B4201D38B0054
:1009E000C01A5241D9D243088B4201D34B00C01ADE
:1009F0005241411A00D20146634652415B101046F3
:100A000001D34042002B00D54942704763465B103A
:100A100000D3404201B50020C046C04602BD0000E0
:080A200080F0FA020000000062
:04000005000000C136
:00000001FF
