:020000040000FA
:1000000068020010750100007D0100007F01000002
:1000100000000000000000000000000000000000E0
:10002000000000000000000000000000810100004E
:1000300000000000000000008301000085010000B6
:100040008701000087010000870100008701000090
:100050008701000087010000870100008701000080
:100060008701000087010000870100008701000070
:100070008701000087010000870100008701000060
:100080008701000087010000870100008701000050
:100090008701000087010000870100008701000040
:1000A0008701000087010000870100008701000030
:1000B0008701000087010000870100008701000020
:1000C00000F002F800F046F80CA030C808382418F8
:1000D0002D18A246671EAB4654465D46AC4201D180
:1000E00000F038F87E460F3E0FCCB646012633426C
:1000F00000D0FB1AA246AB4633431847680A0000FB
:10010000880A0000103A02D378C878C1FAD852079A
:1001100001D330C830C101D504680C6070470000BD
:100120000023002400250026103A01D378C1FBD813
:10013000520700D330C100D50B60704710B5642959
:1001400002D100F0EDFA10BD002010BD1FB51FBD9B
:1001500010B510BD00F0BAFC1146FFF7F7FF00F034
:1001600031FA00F0D2FC03B4FFF7F2FF03BC00F059
:10017000D9FC00000748804707480047FEE7FEE734
:10018000FEE7FEE7FEE7FEE704480549034A054BA4
:100190007047000071040000C100000068000010FA
:1001A000680200106800001070B5044600BF3448B3
:1001B0000068012109040843314908603148406A58
:1001C000C008C0002F4948620846406A0121084320
:1001D0002C4948620846806AC008C0008862084608
:1001E000806A012108432749886225480068012167
:1001F0000904884322490860012088610846006894
:100200000121090308431E49086083201E49C86074
:100210001E4909680809214600F03FFB0546280AE7
:1002200019494860E8B208600320C8600720886068
:100230000846466970BD00BF13484069C007C00F3B
:100240000028F9D010480068C0B270470E49086015
:1002500000BF0D494969202211402029F9D170477A
:100260000BE000BF084A526920231A40002AF9D047
:100270000278054B1A60401C491E0029F1D17047D5
:100280008080044080400440008000400000001056
:100290000FB41CB5074B06AA7B446946009005982D
:1002A00000F013F80020694600F022F81CBC08BCDE
:1002B00004B01847550000007047704770470000B1
:1002C00001694A1C02610878704700B58FB002913D
:1002D0000021059105490193794403911146049049
:1002E000684600F053FA0FB000BD0000E5FFFFFFC5
:1002F0000A681070521C0A6070477047FFFFFFFFCA
:1003000010B500248048406AC005000F030000F0CB
:100310000FFC10090B0D0F11131517191B1D1F21B1
:100320002325272900241DE0784C1BE0784C19E098
:10033000784C17E0784C15E0784C13E0784C11E0DD
:10034000784C0FE0784C0DE0784C0BE0784C09E0ED
:10035000784C07E0784C05E0784C03E0784C01E0FD
:10036000784C00BF00BF6848406AC006800E811C00
:10037000204600F092FA044663484030006B800744
:10038000800F002806D0012808D0022823D0032897
:1003900063D123E06C486D4908605EE05A48403004
:1003A00000688007800F002806D0012808D00228A6
:1003B0000AD003280DD108E063486449086008E0CA
:1003C00061486249086004E000BF00205F4908609E
:1003D00000BF00BF41E05D4804603EE04A48403055
:1003E00000688007800F002806D0012819D0022855
:1003F0002CD003282FD12AE043488068FF21813187
:100400000840002803D050485049086008E03E48A2
:100410008068C006C00E401C4B4948434B490860E9
:1004200019E039488068FF2181310840002803D055
:1004300045484649086008E033488068C006C00E59
:10044000401C414948434149086004E000BF002086
:100450003E49086000BF00BF00BF00BF2A484030CF
:10046000816B3A48006800F018FA3849086010BDFE
:1004700008B53748806B20218843354988630020C0
:1004800021490862009003E000BF0098401C0090E2
:100490000098C828F8D301201B4940310860486003
:1004A000002048600120486000BF17484030406885
:1004B000C007C00F0028F8D02320134988602448C3
:1004C000806B802188432249886300BF0E48C06842
:1004D000C007C00F0028F9D003200B494031086342
:1004E00001204863002048630120486300BF06489C
:1004F0004030406BC007C00F0028F8D001200249EF
:100500004031886308BD00000080044020A107003E
:1005100000350C00E0C81000C05C1500006A18002F
:1005200040771B0080841E00C0912100009F2400A2
:1005300040AC2700E032290020402C00604D2F0005
:1005400000D43000C0304600001BB700000000108F
:1005500000820440F0B591B003204149086200BF19
:100560003F48006AC007C00F0028F9D13C48006A24
:10057000FF21013108433A4908628320C8600846D8
:100580004068C5B208460068C6B20320C8600720AC
:1005900088603448816B3448006800F07EF9074673
:1005A000280280190101384600F077F904462246F6
:1005B0002EA101A8FFF76CFE2D2101A8FFF750FE28
:1005C00011B0F0BD1CB5344903C901910090254814
:1005D0004030006801210904084322494031086085
:1005E0002E48406AC008C0002C4948620846406A4C
:1005F00001210843294948620846806AC008C000B2
:1006000088620846806A01210843244988621548A7
:1006100040300068012109048843124940310860D4
:1006200001208861084600680121090308430D493B
:1006300040310860FFF78EFF10E02A2118A0FFF775
:100640000FFE7D20C00005E0002100E0491C1F4A8C
:100650009142FBD3421E101EF6D100BFEDE7000011
:100660000080004040800440000000104C504331A6
:1006700031313420205A68656E674D696E672048B5
:10068000656C6C6F2120426175642069732025348C
:100690006420627073200A005C0B000080400440FC
:1006A000D5EAC3F7B5E7D7D3A3BA687474703A2F05
:1006B0002F73686F7035383937323430392E7461A2
:1006C0006F62616F2E636F6D0D0A00007C15000074
:1006D00070B5044685690068C10601D5302600E082
:1006E0002026C00707D070BD62683046A1689047D9
:1006F000206A401C20626D1EF6D570BD70B50446A0
:1007000085690078C00707D170BD6268A1682020A4
:100710009047206A401C20626D1EF6D570BD000017
:10072000F7B5002575291068009914A611D0C046A8
:10073000C046002802DA404211A608E00099096884
:100740008A0701D50FA602E0490704D50EA60125A8
:1007500001E0C046C046009F0024243704E000F0BA
:10076000A1F930313955641C0028F8D12B463246A6
:100770002146009800F03EF9FEBD00000000000098
:100780002D0000002B00000020000000F3B50446FF
:10079000002081B020622046E168884700287AD096
:1007A000252802D06268A16871E0E1682046002532
:1007B000884706460020E0610746A0612A2E0AD03D
:1007C000304600F0C3F9002827D0B8000019303EA9
:1007D0000090866119E00298BA00121902C891616E
:1007E00002902046E1688847012F064617D1E0694C
:1007F00000281FDA202085431CE000980A21806928
:10080000484300998019303888612046E16888475C
:10081000064600F09BF90028EFD1012F0AD02E2EBA
:1008200008D12046E16888470646202005437F1C02
:10083000022FC3DBA069002803DA4042A061012037
:100840000543E80701D010208543002E23D0304611
:100850004138192803D80120C0020543203620461C
:1008600025603146029A1546FFF768FC00280BD038
:10087000012806D0ED1DE808C000083002908AE784
:1008800009E02D1D029586E762683046A168904711
:10089000206A401C7EE7206AFEBD002203098B42CD
:1008A0002CD3030A8B4211D300239C464EE003460F
:1008B0000B433CD4002243088B4231D303098B42C3
:1008C0001CD3030A8B4201D394463FE0C3098B42F9
:1008D00001D3CB01C01A524183098B4201D38B0152
:1008E000C01A524143098B4201D34B01C01A5241F5
:1008F00003098B4201D30B01C01A5241C3088B423A
:1009000001D3CB00C01A524183088B4201D38B0024
:10091000C01A524143088B4201D34B00C01A5241C6
:10092000411A00D201465241104670475DE0CA0F9D
:1009300000D04942031000D34042534000229C465D
:1009400003098B422DD3030A8B4212D3FC22890167
:1009500012BA030A8B420CD3890192118B4208D33D
:10096000890192118B4204D389013AD0921100E09F
:100970008909C3098B4201D3CB01C01A52418309B3
:100980008B4201D38B01C01A524143098B4201D3E0
:100990004B01C01A524103098B4201D30B01C01A0B
:1009A0005241C3088B4201D3CB00C01A5241830885
:1009B0008B4201D38B00C01A5241D9D243088B42DB
:1009C00001D34B00C01A5241411A00D2014663467E
:1009D00052415B10104601D34042002B00D54942E2
:1009E000704763465B1000D3404201B50020C0460B
:1009F000C04602BDFFB504460D4681B024300090CC
:100A00002168880604D51022E0699143216000E046
:100A10000120A84201DD471B00E000270498A169DE
:100A20007A191018081AA0612078C00602D420464E
:100A3000FFF74EFE002608E003986268A168805D1B
:100A40009047206A401C761C206204988642F3DBA3
:100A50002078C0060AD52046FFF73AFE06E0626815
:100A6000A16830209047206A401C206238467F1ED3
:100A70000028F4DC07E000986268A168405D9047B8
:100A8000206A401C206228466D1E0028F3DC2046A8
:100A9000FFF734FE2078000602D5022005B0F0BD35
:100AA0000120FBE701468008081A02091018020A13
:100AB0001018020C1018C008820012185200891A6F
:100AC00001E0401C0A390A29FBD27047754600F044
:100AD00025F8AE46050069465346C008C000854665
:100AE00018B020B5FFF750FB60BC00274908B64698
:100AF0000026C0C5C0C5C0C5C0C5C0C5C0C5C0C52D
:100B0000C0C5403D49008D46704710B50446C046FB
:100B1000C0462046FFF727FB10BD00000048704785
:100B20000400001001491820ABBEFEE726000200B9
:100B300030B47446641E2578641CAB4204D3635DF4
:100B40005B00E31830BC18471D46F8E730380A2828
:100B500001D20120704700207047000030000000E3
:100B600000000000840B00000000001004000000E2
:100B700004010000880B0000040000106402000063
:080B800020010000006CDC0202
:04000005000000C136
:00000001FF
