:020000040000FA
:1000000068020010650100006D0100006F01000032
:1000100000000000000000000000000000000000E0
:10002000000000000000000000000000710100005E
:1000300000000000000000007301000055050000F2
:1000400077010000770100007701000077010000D0
:1000500077010000770100007701000077010000C0
:1000600077010000770100007701000077010000B0
:1000700077010000770100007701000077010000A0
:100080007701000077010000770100007701000090
:100090007701000077010000770100007701000080
:1000A0007701000077010000770100007701000070
:1000B0007701000077010000770100007701000060
:1000C00000F002F800F03EF80CA030C80838241800
:1000D0002D18A246671EAB4654465D46AC4201D180
:1000E00000F030F87E460F3E0FCCB6460126334274
:1000F00000D0FB1AA246AB463343184798090000CC
:10010000B8090000103A02D378C878C1FAD852076B
:1001100001D330C830C101D504680C6070470000BD
:100120000023002400250026103A01D378C1FBD813
:10013000520700D330C100D50B6070471FB51FBDFB
:1001400010B510BD00F0ACF81146FFF7F7FF00F056
:100150001FFA00F0C4F803B4FFF7F2FF03BC00F08D
:1001600085FC00000748804707480047FEE7FEE798
:10017000FEE7FEE7FEE7FEE704480549034A054BB4
:100180007047000071040000C1000000680000100A
:10019000680200106800001070B504460E4625463F
:1001A000E117090E491909124900A031C8B200F03F
:1001B000E5FA2546E117090E491909120902611AE3
:1001C000C8B200F00EFB304600F00BFB00F0CCFA9A
:1001D000052000F0C5F970BD70B50446002625461F
:1001E000E117090E491909124900A031C8B200F0FF
:1001F000C5FA2546E117090E491909120902611AC3
:10020000C8B200F0EEFAE117090E491909124900C7
:10021000A131C8B200F0B2FA00F0F2FA064600F0DE
:10022000A3FA304670BD70B506460C46154608E088
:100230003046721C96B2FFF7CFFF2070641C681E18
:1002400085B2002DF4D170BD70B505460C4616463A
:1002500006E021782846FFF79FFF681C85B2641CE2
:100260003046711E8EB20028F3D170BD10B500204B
:10027000FFF7B2FF0446882C01D1002010BD882171
:100280000020FFF789FF0020FFF7A6FF0446882C17
:1002900001D10020F2E70120F0E770477047704776
:1002A000754600F025F8AE46050069465346C0087D
:1002B000C000854618B020B5FFF75EFF60BC002780
:1002C0004908B6460026C0C5C0C5C0C5C0C5C0C522
:1002D000C0C5C0C5C0C5403D49008D46704710B57A
:1002E0000446C046C0462046FFF735FF10BD00005B
:1002F000004870470800001070470000FFFFFFFF34
:1003000010B500248048406AC005000F030000F0CB
:10031000B3FB10090B0D0F11131517191B1D1F210E
:100320002325272900241DE0784C1BE0784C19E098
:10033000784C17E0784C15E0784C13E0784C11E0DD
:10034000784C0FE0784C0DE0784C0BE0784C09E0ED
:10035000784C07E0784C05E0784C03E0784C01E0FD
:10036000784C00BF00BF6848406AC006800E811C00
:10037000204600F0CDFA044663484030006B800709
:10038000800F002806D0012808D0022823D0032897
:1003900063D123E06C486D4908605EE05A48403004
:1003A00000688007800F002806D0012808D00228A6
:1003B0000AD003280DD108E063486449086008E0CA
:1003C00061486249086004E000BF00205F4908609E
:1003D00000BF00BF41E05D4804603EE04A48403055
:1003E00000688007800F002806D0012819D0022855
:1003F0002CD003282FD12AE043488068FF21813187
:100400000840002803D050485049086008E03E48A2
:100410008068C006C00E401C4B4948434B490860E9
:1004200019E039488068FF2181310840002803D055
:1004300045484649086008E033488068C006C00E59
:10044000401C414948434149086004E000BF002086
:100450003E49086000BF00BF00BF00BF2A484030CF
:10046000816B3A48006800F053FA3849086010BDC3
:1004700008B53748806B20218843354988630020C0
:1004800021490862009003E000BF0098401C0090E2
:100490000098C828F8D301201B4940310860486003
:1004A000002048600120486000BF17484030406885
:1004B000C007C00F0028F8D02320134988602448C3
:1004C000806B802188432249886300BF0E48C06842
:1004D000C007C00F0028F9D003200B494031086342
:1004E00001204863002048630120486300BF06489C
:1004F0004030406BC007C00F0028F8D001200249EF
:100500004031886308BD00000080044020A107003E
:1005100000350C00E0C81000C05C1500006A18002F
:1005200040771B0080841E00C0912100009F2400A2
:1005300040AC2700E032290020402C00604D2F0005
:1005400000D43000C0304600001BB700000000108F
:100550000082044045480068401C444908607047D8
:1005600043494143491E434A51610021916111466B
:100570000969032211433F4A116100BF3B490968E1
:100580000029FBD00021394A11603A4A11617047B5
:100590001CB54B20C00100F047F9012000F094F891
:1005A000FFF764FE002807D1132133A000F098F96B
:1005B0000A2000F08BF903E0182134A000F090F934
:1005C00006213020FFF7E8FD00253020FFF704FE6C
:1005D0000546062D0DD128463030C5B2142131A074
:1005E00000F07EF9284600F071F90A2000F06EF95B
:1005F00006E01D2131A000F073F90A2000F066F931
:10060000002403E068460455601CC4B2062CF9DBE4
:10061000062269461020FFF717FE002404E00020A0
:1006200069460855601CC4B2062CF8DB06226946F0
:100630001020FFF7F8FD14211AA000F051F9002452
:100640000CE06846005D303069460855085D00F0F2
:100650003DF9202000F03AF9601CC4B2062CF0DB12
:100660000A2000F033F900BFFEE70000040000108C
:10067000C05D000000E000E0CED2BCECB2E2B5BD4F
:10068000C1CB41543234433136212100CED2C3BBD9
:10069000D3D0BCECB2E2B5BD415432344331362143
:1006A00021200000C4FAB8D5B2C5D0B4BDF8C8A5A1
:1006B000B5C4CAFDCAC73A2000000000CAA7B0DC12
:1006C000A3A1A3A1A3A10000554949680222114397
:1006D000534A516052498031096820221143504ADF
:1006E00080321160114609680122120411434C4AFC
:1006F000803211604B49096B89098901494A1163AC
:100700001146096B01221143464A11631146496B98
:100710008909890151631146496B01221143414AFC
:1007200051633F49803109680122120411433C4A58
:1007300080321160012805D12F21820711615D21CE
:10074000516106E0BC21012292071161FF21753140
:100750005161FF21012292079161114609684022EF
:1007600011431206116070470820C1068861C00657
:1007700000681021084389060860704700B50246EA
:10078000D007C00F002801D0402300E01823FF202D
:10079000012189078861084600686021084301211A
:1007A0008907086000BF0120800700680821084011
:1007B0000028F8D0C80682602820C106886100BFE2
:1007C000012080070068082108400028F8D0C806EA
:1007D0004068984203D0FFF7C7FF012000BD00200A
:1007E000FCE70121890788600821CA06916100BFE2
:1007F000012189070968082211400029F8D07047B3
:100800000C2101229207916100BF0121890709682B
:10081000082211400029F8D0D1068968C8B2704773
:10082000008004400040044070B5044600BF3448D6
:100830000068012109040843314908603148406AD1
:10084000C008C0002F4948620846406A0121084399
:100850002C4948620846806AC008C0008862084681
:10086000806A0121084327498862254800680121E0
:10087000090488432249086001208861084600680D
:100880000121090308431E49086083201E49C860EE
:100890001E4909680809214600F03AF80546280A69
:1008A00019494860E8B208600320C86007208860E2
:1008B0000846466970BD00BF13484069C007C00FB5
:1008C0000028F9D010480068C0B270470E4908608F
:1008D00000BF0D494969202211402029F9D17047F4
:1008E0000BE000BF084A526920231A40002AF9D0C1
:1008F0000278054B1A60401C491E0029F1D170474F
:1009000080800440804004400080004000000010CF
:10091000002203098B422CD3030A8B4211D30023FC
:100920009C464EE003460B433CD4002243088B42D6
:1009300031D303098B421CD3030A8B4201D3944663
:100940003FE0C3098B4201D3CB01C01A5241830956
:100950008B4201D38B01C01A524143098B4201D310
:100960004B01C01A524103098B4201D30B01C01A3B
:100970005241C3088B4201D3CB00C01A52418308B5
:100980008B4201D38B00C01A524143088B4201D3E2
:100990004B00C01A5241411A00D201465241104642
:1009A00070475DE0CA0F00D04942031000D34042B7
:1009B000534000229C4603098B422DD3030A8B42ED
:1009C00012D3FC22890112BA030A8B420CD389018B
:1009D00092118B4208D3890192118B4204D3890171
:1009E0003AD0921100E08909C3098B4201D3CB01AF
:1009F000C01A524183098B4201D38B01C01A524164
:100A000043098B4201D34B01C01A524103098B4267
:100A100001D30B01C01A5241C3088B4201D3CB0052
:100A2000C01A524183088B4201D38B00C01A524135
:100A3000D9D243088B4201D34B00C01A5241411A0C
:100A400000D20146634652415B10104601D340423A
:100A5000002B00D54942704763465B1000D34042EB
:100A600001B50020C046C04602BD00000149182063
:100A7000ABBEFEE72600020030B47446641E257843
:100A8000641CAB4204D3635D5B00E31830BC1847C1
:100A90001D46F8E7B40A000000000010080000003E
:100AA00004010000BC0A0000080000106002000001
:0C0AB00020010000006CDC0200000000CF
:04000005000000C136
:00000001FF
