:020000040000FA
:1000000078030010650100006D0100006F01000021
:1000100000000000000000000000000000000000E0
:10002000000000000000000000000000710100005E
:1000300000000000000000007301000075010000D6
:1000400077010000770100007701000077010000D0
:1000500077010000770100007701000077010000C0
:1000600077010000770100007701000077010000B0
:1000700077010000770100007701000077010000A0
:100080007701000077010000770100007701000090
:100090007701000077010000770100007701000080
:1000A0007701000077010000770100007701000070
:1000B0007701000077010000770100007701000060
:1000C00000F002F800F03EF80CA030C80838241800
:1000D0002D18A246671EAB4654465D46AC4201D180
:1000E00000F030F87E460F3E0FCCB6460126334274
:1000F00000D0FB1AA246AB4633431847DC01000090
:10010000FC010000103A02D378C878C1FAD852072F
:1001100001D330C830C101D504680C6070470000BD
:100120000023002400250026103A01D378C1FBD813
:10013000520700D330C100D50B6070471FB51FBDFB
:1001400010B510BD00F087F81146FFF7F7FF00F07B
:1001500023F800F09FF803B4FFF7F2FF03BC00F0B0
:10016000A5F800000748804707480047FEE7FEE77C
:10017000FEE7FEE7FEE7FEE704480549034A054BB4
:100180007047000071040000C100000078010010F9
:1001900078030010780100101F48204908602049AA
:1001A000C863204908602049C8632048006880214E
:1001B00008431E4908604B20C00100F027FB00F0F7
:1001C00042FA00F095FA082119A000F07BFB0A2002
:1001D00000F06EFB1FE019A20021084600F0A4FA0F
:1001E000642000F0B7F915A20221002000F09CFA6B
:1001F000642000F0AFF911A20421002000F094FA6D
:10020000642000F0A7F90DA20621002000F08CFA6E
:10021000642000F09FF9DEE7FF0F0000008002502D
:10022000C03F025000800350C03F03508080044014
:10023000626567696E20202000000000CBBEB9AB6C
:10024000CFDED3D0BCBCBFC6D6D0C6D50000000020
:10025000704770477047754600F024F8AE460500B9
:1002600069465346C008C000854618B020B5FFF760
:1002700083FF60BC00274908B6460026C0C5C0C53C
:10028000C0C5C0C5C0C5C0C5C0C5C0C5403D49008A
:100290008D46704710B50446C046C0462046FFF75D
:1002A0005AFF10BD00487047140100100149182082
:1002B000ABBEFEE726000200704730B47446641EF1
:1002C0002578641CAB4204D3635D5B00E31830BC4B
:1002D00018471D46F8E70000500A00000000001013
:1002E0001401000004010000640B00001401001060
:1002F000640200002001000000000000FFFFFFFF7B
:1003000010B500248048406AC005000F0300FFF7C5
:10031000D4FF10090B0D0F11131517191B1D1F21E9
:100320002325272900241DE0784C1BE0784C19E098
:10033000784C17E0784C15E0784C13E0784C11E0DD
:10034000784C0FE0784C0DE0784C0BE0784C09E0ED
:10035000784C07E0784C05E0784C03E0784C01E0FD
:10036000784C00BF00BF6848406AC006800E811C00
:10037000204600F0BFFA044663484030006B800717
:10038000800F002806D0012808D0022823D0032897
:1003900063D123E06C486D4908605EE05A48403004
:1003A00000688007800F002806D0012808D00228A6
:1003B0000AD003280DD108E063486449086008E0CA
:1003C00061486249086004E000BF00205F4908609E
:1003D00000BF00BF41E05D4804603EE04A48403055
:1003E00000688007800F002806D0012819D0022855
:1003F0002CD003282FD12AE043488068FF21813187
:100400000840002803D050485049086008E03E48A2
:100410008068C006C00E401C4B4948434B490860E9
:1004200019E039488068FF2181310840002803D055
:1004300045484649086008E033488068C006C00E59
:10044000401C414948434149086004E000BF002086
:100450003E49086000BF00BF00BF00BF2A484030CF
:10046000816B3A48006800F045FA3849086010BDD1
:1004700008B53748806B20218843354988630020C0
:1004800021490862009003E000BF0098401C0090E2
:100490000098C828F8D301201B4940310860486003
:1004A000002048600120486000BF17484030406885
:1004B000C007C00F0028F8D02420134988602448C2
:1004C000806B802188432249886300BF0E48C06842
:1004D000C007C00F0028F9D003200B494031086342
:1004E00001204863002048630120486300BF06489C
:1004F0004030406BC007C00F0028F8D001200249EF
:100500004031886308BD00000080044020A107003E
:1005100000350C00E0C81000C05C1500006A18002F
:1005200040771B0080841E00C0912100009F2400A2
:1005300040AC2700E032290020402C00604D2F0005
:1005400000D43000C0304600001BB700000000108F
:10055000008204400221A84A51607D21C900D16077
:100560003021414391610121116004215161012138
:10057000516000BFA0494968C907C90F0029F9D1D6
:10058000704702219C4A51600021D16030214143D3
:10059000916101211160042151610121516000BF6D
:1005A00095494968C907C90F0029F9D1704793498E
:1005B000C96B0F2212021140904AD1631146C96BD8
:1005C0000143D163704700B5034600208C49886021
:1005D0008C48086200208A494031086088490861D7
:1005E0000A20FFF7CEFF0A20FFF7CBFF1846FFF7E0
:1005F000DEFF0A20FFF7C5FF0A20FFF7C2FF814890
:100600007F49086100BD00B5034600207C49886031
:100610007C4808627A4940310860002078490861C6
:100620000A20FFF7AEFF0A20FFF7ABFF1846FFF7DF
:10063000BEFF0A20FFF7A5FF0A20FFF7A2FF7148BF
:100640006F49086100BD10B500206D494860002465
:1006500001E0601CC4B2642CFBDB0A20FFF791FFB1
:1006600000206749886067484860E220FFF7ABFFD9
:10067000002401E0601CC4B2642CFBDB0A20FFF7FD
:1006800080FFA120FFF79FFFC820FFF79CFFA72056
:10069000FFF799FFA420FFF796FFA220FFF793FF33
:1006A000F820FFF790FF0120FFF78DFF8120FFF773
:1006B0008AFF2320FFF787FF2520FFF784FF2F20E5
:1006C000FFF781FF002401E0601CC4B2642CFBDB57
:1006D0000A20FFF756FF4020FFF775FFAF20FFF716
:1006E00072FF002401E0601CC4B2642CFBDB10BD6F
:1006F00030B5002415E02146B031C8B2FFF763FFE2
:100700001020FFF760FF0420FFF75DFF002504E0E5
:100710000020FFF778FF681CC5B2802DF8DB601C55
:10072000C4B2082CE7DB30BDFEB504460D461646C4
:10073000072D01DD0020FEBD802C01DD0020FAE741
:100740002846B030C5B22846FFF73DFF4EE02846A8
:10075000FFF739FF2006010F01912107090F0091D2
:10076000019908461030FFF72EFF0099081DFFF78A
:100770002AFF002737E0222078432349085C31789C
:1007800088422ED1222078431F4940184078717842
:10079000884226D1002002901DE0029810280DD139
:1007A000691CC8B2FFF70FFF01991031C8B2FFF7FB
:1007B0000AFF0099091DC8B2FFF705FF22217943FE
:1007C000114A8918891C029A885CFFF71CFF02985D
:1007D000401CC0B2029002982028DEDB2046103078
:1007E000C4B2781CC7B2322FC5DBB61C30780028E3
:1007F000ADD101209FE7000000C00040C03F025083
:1008000000000350FF0F00000400001070B5044604
:1008100000BF3448006801210904084331490860D9
:100820003148406AC008C0002F4948620846406A03
:10083000012108432C4948620846806AC008C0006C
:1008400088620846806A0121084327498862254852
:100850000068012109048843224908600120886159
:10086000084600680121090308431E4908608320E7
:100870001E49C8601E4909680809214600F03AF877
:100880000546280A19494860E8B208600320C86094
:10089000072088600846466970BD00BF134840695C
:1008A000C007C00F0028F9D010480068C0B27047D8
:1008B00000BF0E494969202211400029F9D00B4997
:1008C000086070470BE000BF084A526920231A40B5
:1008D000002AF9D00278054B1A60401C491E0029F5
:1008E000F1D1704780800440804004400080004087
:1008F00000000010002203098B422CD3030A8B4214
:1009000011D300239C464EE003460B433CD4002207
:1009100043088B4231D303098B421CD3030A8B4219
:1009200001D394463FE0C3098B4201D3CB01C01AE7
:10093000524183098B4201D38B01C01A52414309B2
:100940008B4201D34B01C01A524103098B4201D3A0
:100950000B01C01A5241C3088B4201D3CB00C01A0D
:10096000524183088B4201D38B00C01A5241430885
:100970008B4201D34B00C01A5241411A00D20146AA
:100980005241104670475DE0CA0F00D04942031043
:1009900000D34042534000229C4603098B422DD392
:1009A000030A8B4212D3FC22890112BA030A8B423A
:1009B0000CD3890192118B4208D3890192118B4289
:1009C00004D389013AD0921100E08909C3098B420E
:1009D00001D3CB01C01A524183098B4201D38B0151
:1009E000C01A524143098B4201D34B01C01A5241F4
:1009F00003098B4201D30B01C01A5241C3088B4239
:100A000001D3CB00C01A524183088B4201D38B0023
:100A1000C01A5241D9D243088B4201D34B00C01AAD
:100A20005241411A00D20146634652415B101046C2
:100A300001D34042002B00D54942704763465B100A
:100A400000D3404201B50020C046C04602BD0000B0
:100A500000879303C6D50040445464457E44444413
:100A60007E456454444000000000FF49494949491B
:100A70004949FF000000D6D00000FC08080808FF24
:100A800008080808FC08000000000702020202FF34
:100A90000202020207000000BFC6000000FF0000C3
:100AA000CC22009151FE72921210000101FF02024D
:100AB0000204040400FF00010204BCBC000848C892
:100AC000487F4848C8002848FF880808002060215F
:100AD000120C0C13204040007F804101D3D0000451
:100AE0000404E4242424272C34E444840400000077
:100AF00000007FC94929090909FF00000102CFDE72
:100B00000000007E4A4A4ACA4AFE00824E3202FE75
:100B100000206021120C032040FF0003040200FFAC
:100B2000B9AB008080C060100E0000840E304080A1
:100B300000000000013078141010312324287020A8
:100B40000100CBBE0000FE0202129292929292929B
:100B50009292100000003F4020000F04040404049F
:040B6000041F00006E
:04000005000000C136
:00000001FF
