:020000040000FA
:1000000068020010650100006D0100006F01000032
:1000100000000000000000000000000000000000E0
:10002000000000000000000000000000710100005E
:1000300000000000000000007301000055050000F2
:1000400077010000770100007701000077010000D0
:1000500077010000770100007701000077010000C0
:1000600077010000770100007701000077010000B0
:1000700077010000770100007701000077010000A0
:100080007701000077010000770100007701000090
:100090007701000077010000770100007701000080
:1000A0007701000077010000770100007701000070
:1000B0007701000077010000770100007701000060
:1000C00000F002F800F03EF80CA030C80838241800
:1000D0002D18A246671EAB4654465D46AC4201D180
:1000E00000F030F87E460F3E0FCCB6460126334274
:1000F00000D0FB1AA246AB4633431847800A0000E3
:10010000A00A0000103A02D378C878C1FAD8520782
:1001100001D330C830C101D504680C6070470000BD
:100120000023002400250026103A01D378C1FBD813
:10013000520700D330C100D50B6070471FB51FBDFB
:1001400010B510BD00F0EDFC1146FFF7F7FF00F011
:1001500037FA00F0B7F803B4FFF7F2FF03BC00F082
:10016000BDF800000748804707480047FEE7FEE764
:10017000FEE7FEE7FEE7FEE704480549034A054BB4
:100180007047000071040000C1000000680000100A
:10019000680200106800001070B50446002600F0E8
:1001A000B6FA2546E117090E491909124900A0318E
:1001B000C8B200F01FFB00F0F0FAE117090E491970
:1001C00009120902611AC8B200F014FB00F0E5FA46
:1001D00000F09DFAE117090E491909124900A131F1
:1001E000C8B200F007FB00F0D8FA00F045FB064665
:1001F00000F0D3FA00F0AEFA304670BD70B5044698
:100200000E4600F084FA2546E117090E4919091235
:100210004900A031C8B200F0EDFA00F0BEFAE117D3
:10022000090E491909120902611AC8B200F0E2FA6E
:1002300000F0B3FA304600F0DDFA00F0AEFA00F05C
:1002400089FA052000F08CF970BD70B506460C46A1
:10025000154608E03046721C96B2FFF79DFF2070ED
:10026000641C681E85B2002DF4D170BD70B50546C2
:100270000C46164606E021782846FFF7BFFF681CAB
:1002800085B2641C3046711E8EB20028F3D170BD59
:1002900010B50020FFF780FF0446882C01D1002014
:1002A00010BD88210020FFF7A9FF0020FFF774FF91
:1002B0000446882C01D10020F2E70120F0E77047C6
:1002C0007047704710B50446C046C0462046FFF749
:1002D00042FF10BD00487047080000100149182077
:1002E000ABBEFEE7260002007047000000000000E1
:1002F000000000000000000000000000FFFFFFFF02
:1003000010B500248048406AC005000F030000F0CB
:1003100027FC10090B0D0F11131517191B1D1F2199
:100320002325272900241DE0784C1BE0784C19E098
:10033000784C17E0784C15E0784C13E0784C11E0DD
:10034000784C0FE0784C0DE0784C0BE0784C09E0ED
:10035000784C07E0784C05E0784C03E0784C01E0FD
:10036000784C00BF00BF6848406AC006800E811C00
:10037000204600F029FB044663484030006B8007AC
:10038000800F002806D0012808D0022823D0032897
:1003900063D123E06C486D4908605EE05A48403004
:1003A00000688007800F002806D0012808D00228A6
:1003B0000AD003280DD108E063486449086008E0CA
:1003C00061486249086004E000BF00205F4908609E
:1003D00000BF00BF41E05D4804603EE04A48403055
:1003E00000688007800F002806D0012819D0022855
:1003F0002CD003282FD12AE043488068FF21813187
:100400000840002803D050485049086008E03E48A2
:100410008068C006C00E401C4B4948434B490860E9
:1004200019E039488068FF2181310840002803D055
:1004300045484649086008E033488068C006C00E59
:10044000401C414948434149086004E000BF002086
:100450003E49086000BF00BF00BF00BF2A484030CF
:10046000816B3A48006800F0AFFA3849086010BD67
:1004700008B53748806B20218843354988630020C0
:1004800021490862009003E000BF0098401C0090E2
:100490000098C828F8D301201B4940310860486003
:1004A000002048600120486000BF17484030406885
:1004B000C007C00F0028F8D02320134988602448C3
:1004C000806B802188432249886300BF0E48C06842
:1004D000C007C00F0028F9D003200B494031086342
:1004E00001204863002048630120486300BF06489C
:1004F0004030406BC007C00F0028F8D001200249EF
:100500004031886308BD00000080044020A107003E
:1005100000350C00E0C81000C05C1500006A18002F
:1005200040771B0080841E00C0912100009F2400A2
:1005300040AC2700E032290020402C00604D2F0005
:1005400000D43000C0304600001BB700000000108F
:100550000082044050480068401C4F4908607047C2
:100560004E494143491E4E4A516100219161114655
:100570000969032211434A4A116100BF46490968CB
:100580000029FBD00021444A1160454A116170479F
:1005900018214143491E424A51610021916111468F
:1005A0000969032211433E4A116100BF3A490968B3
:1005B0000029FBD00021384A1160394A1161704787
:1005C0001CB54B20C00100F08BF900F093F8FFF749
:1005D0005FFE002807D1132132A000F0DDF90A20C8
:1005E00000F0D0F903E0182133A000F0D5F905217F
:1005F0003020FFF703FE00253020FFF7CDFD054634
:10060000052D0DD128463030C5B2142130A000F0A0
:10061000C3F9284600F0B6F90A2000F0B3F906E065
:100620001D2131A000F0B8F90A2000F0ABF9002438
:1006300003E068460455601CC4B2062CF9DB0622B0
:1006400069461020FFF712FE002404E000206946EE
:100650000855601CC4B2062CF8DB0622694610203F
:10066000FFF7F3FD14211AA000F096F900240CE026
:100670006846005D303069460855085D00F082F933
:10068000202000F07FF9601CC4B2062CF0DB0A20A9
:1006900000F078F900BFFEE704000010C05D000024
:1006A00000E000E0CED2BCECB2E2B5BDC1CB41541B
:1006B0003234433136212100CED2C3BBD3D0BCEC7F
:1006C000B2E2B5BD4154323443313621212000001D
:1006D000C4FAB8D5B2C5D0B4BDF8C8A5B5C4CAFD72
:1006E000CAC73A2000000000CAA7B0DCA3A1A3A19A
:1006F000A3A10000784800683021084376490860CB
:100700007648C06B302108437449C863704710B500
:1007100071480068202108436F4908606F48C06B2A
:10072000202108436D49C8630520FFF731FF6B485E
:10073000C06B102108436949C8630520FFF728FFF3
:100740006648C06B202188436449C8630520FFF7D1
:100750001FFF10BD10B560480068202108435E49A6
:1007600008605E48C06B202188435C49C86305204F
:10077000FFF70EFF5948C06B102108435749C86363
:100780000520FFF705FF5548C06B2021084353495A
:10079000C8630520FFF7FCFE10BD10B54E48006889
:1007A000202108434C4908604C48C06B2021084375
:1007B0004A49C8630846C06B102108434749C863CB
:1007C0004548006820218843434908600520FFF719
:1007D000DFFE4248C06B20210840202801D10124BF
:1007E00000E000243D48C06B102188433B49C863AA
:1007F000204610BDF8B5054637480068202108435B
:10080000354908602C46002633E03448C06B10217F
:1008100088433249C8630520FFF7BAFE2746802087
:100820000740802F06D12D48C06B202108432B495B
:10083000C86305E02948C06B202188432749C86365
:100840000520FFF7A5FE2548C06B1021084323496A
:10085000C8630520FFF79CFE2048C06B1021884329
:100860001E49C8630520FFF793FE6006040E701C46
:10087000C6B2082EC9DBF8BD70B500241648006862
:100880002021884314490860002520E06006040EFA
:100890000520FFF77DFE1148C06B102188430F49EA
:1008A000C8630520FFF774FE0C48C06B1021084395
:1008B0000A49C8630520FFF76BFE0848C06B20217A
:1008C0000840202801D101200443681CC5B2082D2E
:1008D000DCDB204670BD000000800050C03F0050AF
:1008E00070B5044600BF344800680121090408437C
:1008F000314908603148406AC008C0002F49486249
:100900000846406A012108432C4948620846806A2B
:10091000C008C00088620846806A01210843274950
:10092000886225480068012109048843224908603B
:1009300001208861084600680121090308431E4917
:10094000086083201E49C8601E49096808092146BD
:1009500000F03AF80546280A19494860E8B20860EC
:100960000320C860072088600846466970BD00BF44
:1009700013484069C007C00F0028F9D0104800682C
:10098000C0B270470E49086000BF0D494969202276
:1009900011402029F9D170470BE000BF084A526985
:1009A00020231A40002AF9D00278054B1A60401C17
:1009B000491E0029F1D170478080044080400440E6
:1009C0000080004000000010002203098B422CD35D
:1009D000030A8B4211D300239C464EE003460B438F
:1009E0003CD4002243088B4231D303098B421CD3F1
:1009F000030A8B4201D394463FE0C3098B4201D3E3
:100A0000CB01C01A524183098B4201D38B01C01A1A
:100A1000524143098B4201D34B01C01A5241030991
:100A20008B4201D30B01C01A5241C3088B4201D340
:100A3000CB00C01A524183088B4201D38B00C01AED
:100A4000524143088B4201D34B00C01A5241411A14
:100A500000D201465241104670475DE0CA0F00D0F7
:100A60004942031000D34042534000229C460309F0
:100A70008B422DD3030A8B4212D3FC22890112BA76
:100A8000030A8B420CD3890192118B4208D389014E
:100A900092118B4204D389013AD0921100E0890966
:100AA000C3098B4201D3CB01C01A524183098B4247
:100AB00001D38B01C01A524143098B4201D34B0130
:100AC000C01A524103098B4201D30B01C01A524193
:100AD000C3088B4201D3CB00C01A524183088B421A
:100AE00001D38B00C01A5241D9D243088B4201D3A3
:100AF0004B00C01A5241411A00D20146634652418E
:100B00005B10104601D34042002B00D5494270478C
:100B100063465B1000D3404201B50020C046C0468A
:100B200002BD7546FFF7D6FBAE4605006946534643
:100B3000C008C000854618B020B5FFF71DFB60BC9B
:100B400000274908B6460026C0C5C0C5C0C5C0C5F7
:100B5000C0C5C0C5C0C5C0C5403D49008D46704731
:100B600030B47446641E2578641CAB4204D3635DC4
:100B70005B00E31830BC18471D46F8E79C0B0000EB
:100B8000000000100800000004010000A40B000099
:100B9000080000106002000020010000006CDC0270
:040BA0000000000051
:04000005000000C136
:00000001FF
