:020000040000FA
:1000000068020010650100006D0100006F01000032
:1000100000000000000000000000000000000000E0
:10002000000000000000000000000000710100005E
:1000300000000000000000007301000075010000D6
:1000400077010000770100007701000077010000D0
:1000500077010000770100007701000077010000C0
:1000600077010000770100007701000077010000B0
:1000700077010000770100007701000077010000A0
:100080007701000077010000770100007701000090
:100090007701000077010000770100007701000080
:1000A0007701000077010000770100007701000070
:1000B000770100007701000099010000770100003E
:1000C00000F002F800F03EF80CA030C80838241800
:1000D0002D18A246671EAB4654465D46AC4201D180
:1000E00000F030F87E460F3E0FCCB6460126334274
:1000F00000D0FB1AA246AB46334318472C0600003B
:100100004C060000103A02D378C878C1FAD85207DA
:1001100001D330C830C101D504680C6070470000BD
:100120000023002400250026103A01D378C1FBD813
:10013000520700D330C100D50B6070471FB51FBDFB
:1001400010B510BD00F0B3FA1146FFF7F7FF00F04D
:100150005AF800F0CBFA03B4FFF7F2FF03BC00F04B
:10016000CDFA00000748804707480047FEE7FEE752
:10017000FEE7FEE7FEE7FEE704480549034A054BB4
:100180007047000071040000C1000000680000100A
:1001900068020010680000104C488069C007C00F5A
:1001A000002813D04A48C06B082188434849C863D7
:1001B00000BF4848C06BC007C00F0028F9D04448B2
:1001C000C06B082108434249C86318E03F48806972
:1001D00002210840022812D13E48C06B49028843E0
:1001E0003C49C86300BF3B48C06B0221084002285D
:1001F000F9D13848C06B490208433649C8633648CC
:100200003249C86170473548006801210904084334
:1002100032490860D12032498863C8632F4800689A
:100220000121090488432D490860284800684008D6
:100230004000264908600846006802218843234997
:1002400008602848006808210843264908601F48BC
:1002500000680121890208431C4908601C48C06BE2
:10026000082108431A49C8631A48C06B0121890252
:1002700008431849C86315484068012108431349D9
:1002800048600846C06840084000C86008460069E9
:10029000012108430D49086108464068022188434E
:1002A0000A4948600846C068022188430749C86077
:1002B0000846006902210843044908611E20012103
:1002C0008140094A116000BF00BFFEE70080015075
:1002D000C03F0050C03F0150FF0300008080044039
:1002E000404004400080005000E100E0704770474B
:1002F000704700000048704704000010FFFFFFFF38
:1003000010B500248048406AC005000F030000F0CB
:10031000FCF910090B0D0F11131517191B1D1F21C7
:100320002325272900241DE0784C1BE0784C19E098
:10033000784C17E0784C15E0784C13E0784C11E0DD
:10034000784C0FE0784C0DE0784C0BE0784C09E0ED
:10035000784C07E0784C05E0784C03E0784C01E0FD
:10036000784C00BF00BF6848406AC006800E811C00
:10037000204600F0EFF8044663484030006B8007E9
:10038000800F002806D0012808D0022823D0032897
:1003900063D123E06C486D4908605EE05A48403004
:1003A00000688007800F002806D0012808D00228A6
:1003B0000AD003280DD108E063486449086008E0CA
:1003C00061486249086004E000BF00205F4908609E
:1003D00000BF00BF41E05D4804603EE04A48403055
:1003E00000688007800F002806D0012819D0022855
:1003F0002CD003282FD12AE043488068FF21813187
:100400000840002803D050485049086008E03E48A2
:100410008068C006C00E401C4B4948434B490860E9
:1004200019E039488068FF2181310840002803D055
:1004300045484649086008E033488068C006C00E59
:10044000401C414948434149086004E000BF002086
:100450003E49086000BF00BF00BF00BF2A484030CF
:10046000816B3A48006800F075F83849086010BDA3
:1004700008B53748806B20218843354988630020C0
:1004800021490862009003E000BF0098401C0090E2
:100490000098C828F8D301201B4940310860486003
:1004A000002048600120486000BF17484030406885
:1004B000C007C00F0028F8D02420134988602448C2
:1004C000806B802188432249886300BF0E48C06842
:1004D000C007C00F0028F9D003200B494031086342
:1004E00001204863002048630120486300BF06489C
:1004F0004030406BC007C00F0028F8D001200249EF
:100500004031886308BD00000080044020A107003E
:1005100000350C00E0C81000C05C1500006A18002F
:1005200040771B0080841E00C0912100009F2400A2
:1005300040AC2700E032290020402C00604D2F0005
:1005400000D43000C0304600001BB700000000108F
:1005500000820440002203098B422CD3030A8B4201
:1005600011D300239C464EE003460B433CD40022AB
:1005700043088B4231D303098B421CD3030A8B42BD
:1005800001D394463FE0C3098B4201D3CB01C01A8B
:10059000524183098B4201D38B01C01A5241430956
:1005A0008B4201D34B01C01A524103098B4201D344
:1005B0000B01C01A5241C3088B4201D3CB00C01AB1
:1005C000524183088B4201D38B00C01A5241430829
:1005D0008B4201D34B00C01A5241411A00D201464E
:1005E0005241104670475DE0CA0F00D049420310E7
:1005F00000D34042534000229C4603098B422DD336
:10060000030A8B4212D3FC22890112BA030A8B42DD
:100610000CD3890192118B4208D3890192118B422C
:1006200004D389013AD0921100E08909C3098B42B1
:1006300001D3CB01C01A524183098B4201D38B01F4
:10064000C01A524143098B4201D34B01C01A524197
:1006500003098B4201D30B01C01A5241C3088B42DC
:1006600001D3CB00C01A524183088B4201D38B00C7
:10067000C01A5241D9D243088B4201D34B00C01A51
:100680005241411A00D20146634652415B10104666
:1006900001D34042002B00D54942704763465B10AE
:1006A00000D3404201B50020C046C04602BD754699
:1006B000FFF720FEAE46050069465346C008C0005D
:1006C000854618B020B5FFF757FD60BC00274908E4
:1006D000B6460026C0C5C0C5C0C5C0C5C0C5C0C5DA
:1006E000C0C5C0C5403D49008D46704710B50446A1
:1006F000C046C0462046FFF72EFD10BD0149182018
:10070000ABBEFEE726000200704730B47446641E9C
:100710002578641CAB4204D3635D5B00E31830BCF6
:1007200018471D46F8E700004807000000000010C9
:1007300004000000040100004C0700000400001049
:0C07400064020000200100000087930309
:04000005000000C136
:00000001FF
