:020000040000FA
:1000000068020010650100006D0100006F01000032
:1000100000000000000000000000000000000000E0
:10002000000000000000000000000000710100005E
:1000300000000000000000007301000075010000D6
:1000400077010000770100007701000077010000D0
:1000500077010000770100007701000077010000C0
:1000600077010000770100007701000077010000B0
:1000700077010000770100007701000077010000A0
:100080007701000077010000770100007701000090
:100090007701000077010000770100007701000080
:1000A0007701000077010000770100007701000070
:1000B0007701000077010000770100007701000060
:1000C00000F002F800F03EF80CA030C80838241800
:1000D0002D18A246671EAB4654465D46AC4201D180
:1000E00000F030F87E460F3E0FCCB6460126334274
:1000F00000D0FB1AA246AB46334318472C08000039
:100100004C080000103A02D378C878C1FAD85207D8
:1001100001D330C830C101D504680C6070470000BD
:100120000023002400250026103A01D378C1FBD813
:10013000520700D330C100D50B6070471FB51FBDFB
:1001400010B510BD00F0B7F81146FFF7F7FF00F04B
:1001500097F800F0CAFB03B4FFF7F2FF03BC00F00E
:10016000CDFB00000748804707480047FEE7FEE751
:10017000FEE7FEE7FEE7FEE704480549034A054BB4
:100180007047000071040000C1000000680000100A
:10019000680200106800001070B5044600BF3448C3
:1001A0000068012109040843314908603148406A68
:1001B000C008C0002F4948620846406A0121084330
:1001C0002C4948620846806AC008C0008862084618
:1001D000806A012108432749886225480068012177
:1001E00009048843224908600120886108460068A4
:1001F0000121090308431E49086083201E49C86085
:100200001E4909680809214600F0C2FA0546280A75
:1002100019494860E8B208600320C8600720886078
:100220000846466970BD00BF13484069C007C00F4B
:100230000028F9D010480068C0B270470E49086025
:1002400000BF0D494969202211402029F9D170478A
:100250000BE000BF084A526920231A40002AF9D057
:100260000278054B1A60401C491E0029F1D17047E5
:100270008080044080400440008000400000001066
:100280004B20C001FFF788FF002000F063F90EE06B
:10029000FFF7C9FF04462146002000F017FA0024AA
:1002A000002000F025FA04462046FFF7C7FFEFE7DD
:1002B000704770477047754600F01CF8AE46050061
:1002C00069465346C008C000854618B020B5FFF700
:1002D00053FF60BC00274908B6460026C0C5C0C50C
:1002E000C0C5C0C5C0C5C0C5C0C5C0C5403D49002A
:1002F0008D4670470048704704000010FFFFFFFF65
:1003000010B500248048406AC005000F030000F0CB
:10031000FCFA10090B0D0F11131517191B1D1F21C6
:100320002325272900241DE0784C1BE0784C19E098
:10033000784C17E0784C15E0784C13E0784C11E0DD
:10034000784C0FE0784C0DE0784C0BE0784C09E0ED
:10035000784C07E0784C05E0784C03E0784C01E0FD
:10036000784C00BF00BF6848406AC006800E811C00
:10037000204600F00DFA044663484030006B8007C9
:10038000800F002806D0012808D0022823D0032897
:1003900063D123E06C486D4908605EE05A48403004
:1003A00000688007800F002806D0012808D00228A6
:1003B0000AD003280DD108E063486449086008E0CA
:1003C00061486249086004E000BF00205F4908609E
:1003D00000BF00BF41E05D4804603EE04A48403055
:1003E00000688007800F002806D0012819D0022855
:1003F0002CD003282FD12AE043488068FF21813187
:100400000840002803D050485049086008E03E48A2
:100410008068C006C00E401C4B4948434B490860E9
:1004200019E039488068FF2181310840002803D055
:1004300045484649086008E033488068C006C00E59
:10044000401C414948434149086004E000BF002086
:100450003E49086000BF00BF00BF00BF2A484030CF
:10046000816B3A48006800F093F93849086010BD84
:1004700008B53748806B20218843354988630020C0
:1004800021490862009003E000BF0098401C0090E2
:100490000098C828F8D301201B4940310860486003
:1004A000002048600120486000BF17484030406885
:1004B000C007C00F0028F8D02420134988602448C2
:1004C000806B802188432249886300BF0E48C06842
:1004D000C007C00F0028F9D003200B494031086342
:1004E00001204863002048630120486300BF06489C
:1004F0004030406BC007C00F0028F8D001200249EF
:100500004031886308BD00000080044020A107003E
:1005100000350C00E0C81000C05C1500006A18002F
:1005200040771B0080841E00C0912100009F2400A2
:1005300040AC2700E032290020402C00604D2F0005
:1005400000D43000C0304600001BB700000000108F
:10055000008204405449496802221143524A5160C2
:10056000514980310968202211434F4A803211607D
:10057000114609680122120411434B4A803211606E
:100580004A49096B89098901484A11631146096B77
:1005900001221143454A11631146496B89098901BA
:1005A00051631146496B01221143404A51633E4950
:1005B000803109680122120411433B4A80321160E4
:1005C000012805D13C21820711614121516103E0DD
:1005D000FA214A0711615161FF21012292079161BD
:1005E0001146096840221143120611607047082025
:1005F000C1068861C00600681021084389060860AA
:10060000704700B50246D007C00F002801D0402334
:1006100000E01823FF20012189078861084600684F
:100620006021084301218907086000BF012080077D
:100630000068082108400028F8D0C80682602820F9
:10064000C106886100BF01208007006808210840BA
:100650000028F8D0C8064068984203D0FFF7C7FFCB
:10066000012000BD0020FCE70121890788600821E6
:10067000CA06916100BF012189070968082211405B
:100680000029F8D070470C2101229207916100BF28
:10069000012189070968082211400029F8D0D106F4
:1006A0008968C8B2704700000080044000400440E0
:1006B000002107E0002201E0531C9AB28242FBDBDA
:1006C0004B1C99B2314B9942F4DB704770B505462B
:1006D0000C46A020FFF795FF2846FFF7C5FF2046F0
:1006E000FFF7C2FFFFF783FF0420FFF7E1FF70BDB4
:1006F00070B504460025A020FFF783FF2046FFF7D2
:10070000B3FFA120FFF77DFFFFF7BDFF0546FFF711
:100710006EFF284670BD70B506460C46154608E0CB
:100720003046721CD6B2FFF7E3FF2070641C681ECF
:1007300085B2002DF4D170BD70B505460C46164645
:1007400006E021782846FFF7C1FF681CC5B2641C8B
:100750003046711E8EB20028F3D170BD10B5002056
:10076000FFF7C6FF0446882C01D1002010BD882168
:100770000020FFF7ABFF0020FFF7BAFF0446882CEC
:1007800001D10020F2E70120F0E7000050C3000093
:10079000002203098B422CD3030A8B4211D300237E
:1007A0009C464EE003460B433CD4002243088B4258
:1007B00031D303098B421CD3030A8B4201D39446E5
:1007C0003FE0C3098B4201D3CB01C01A52418309D8
:1007D0008B4201D38B01C01A524143098B4201D392
:1007E0004B01C01A524103098B4201D30B01C01ABD
:1007F0005241C3088B4201D3CB00C01A5241830837
:100800008B4201D38B00C01A524143088B4201D363
:100810004B00C01A5241411A00D2014652411046C3
:1008200070475DE0CA0F00D04942031000D3404238
:10083000534000229C4603098B422DD3030A8B426E
:1008400012D3FC22890112BA030A8B420CD389010C
:1008500092118B4208D3890192118B4204D38901F2
:100860003AD0921100E08909C3098B4201D3CB0130
:10087000C01A524183098B4201D38B01C01A5241E5
:1008800043098B4201D34B01C01A524103098B42E9
:1008900001D30B01C01A5241C3088B4201D3CB00D4
:1008A000C01A524183088B4201D38B00C01A5241B7
:1008B000D9D243088B4201D34B00C01A5241411A8E
:1008C00000D20146634652415B10104601D34042BC
:1008D000002B00D54942704763465B1000D340426D
:1008E00001B50020C046C04602BD10B50446C04652
:1008F000C0462046FFF72FFC10BD0000014918201C
:10090000ABBEFEE726000200704730B47446641E9A
:100910002578641CAB4204D3635D5B00E31830BCF4
:1009200018471D46F8E700004809000000000010C5
:1009300004000000040100004C0900000400001045
:0C09400064020000200100000087930307
:04000005000000C136
:00000001FF
