:020000040000FA
:1000000070020010650100006D0100006F0100002A
:1000100000000000000000000000000000000000E0
:10002000000000000000000000000000710100005E
:1000300000000000000000007301000075010000D6
:1000400077010000770100007701000077010000D0
:1000500077010000770100007701000077010000C0
:1000600077010000770100007701000077010000B0
:1000700077010000770100007701000077010000A0
:100080007701000077010000770100007701000090
:100090007701000077010000770100007701000080
:1000A0007701000077010000770100007701000070
:1000B0007701000077010000770100007701000060
:1000C00000F002F800F03EF80CA030C80838241800
:1000D0002D18A246671EAB4654465D46AC4201D180
:1000E00000F030F87E460F3E0FCCB6460126334274
:1000F00000D0FB1AA246AB46334318473C0A000027
:100100005C0A0000103A02D378C878C1FAD85207C6
:1001100001D330C830C101D504680C6070470000BD
:100120000023002400250026103A01D378C1FBD813
:10013000520700D330C100D50B6070471FB51FBDFB
:1001400010B510BD00F02BF81146FFF7F7FF00F0D7
:1001500055FC00F043F803B4FFF7F2FF03BC00F0D6
:1001600049F800000748804707480047FEE7FEE7D8
:10017000FEE7FEE7FEE7FEE704480549034A054BB4
:100180007047000039070000C10000007000001037
:10019000700200107000001070477047704775467D
:1001A00000F024F8AE46050069465346C008C0007A
:1001B000854618B020B5FFF7DFFF60BC002749086F
:1001C000B6460026C0C5C0C5C0C5C0C5C0C5C0C5EF
:1001D000C0C5C0C5403D49008D46704710B50446B6
:1001E000C046C0462046FFF7B6FF10BD0048704726
:1001F0000C00001001491820ABBEFEE726000200EB
:10020000704770B505460E4614463146284600F044
:10021000DBF9204600F0B0F970BD000010B50948C8
:10022000006840210843074908601F2000F034FAA5
:100230001E2000F031FA1D2000F02EFA1C2000F0E4
:100240002BFA10BD8080044010B50021382000F04A
:1002500027F8052000F096FA0021382000F020F859
:10026000052000F08FFA0021382000F019F8052051
:1002700000F088FA0121382000F012F8012108204E
:1002800000F00EF80121084600F00AF801210620CE
:1002900000F006F801210C2000F002F810BD00006B
:1002A00070B505460C46002C01D000F09DFA0F48B1
:1002B000C06B042188430D49C8630022012103203B
:1002C00000F0BCF8012000F077FA284600F008FBA7
:1002D000012000F071FA064806494860022000F04B
:1002E0006BFA00200349486070BD0000C03F035016
:1002F000FF0F00000000035000000000FFFFFFFFA1
:1003000010B5002806D0012826D0022846D00328A0
:1003100077D165E0454B1B6801248C402340002BBE
:1003200009D1012A07D1414B1B6801248C4023438A
:100330003E4C23600FE03D4B1B6801248C40234062
:10034000002B08D0002A06D1384B1B6801248C40B2
:10035000A343364C236067E0354B1B6801248C4077
:100360002340002B09D1012A07D1314B1B680124FE
:100370008C4023432E4C23600FE02D4B1B6801243F
:100380008C402340002B08D0002A06D1284B1C6843
:1003900001238B409C43264B1C6045E0254B1B688A
:1003A00001248C402340002B09D1012A07D1214B85
:1003B0001B6801248C4023431E4C23600FE01D4B1F
:1003C0001B6801248C402340002B08D0002A06D152
:1003D000184B1B6801248C40A343164C236023E078
:1003E000154B1B6801248C402340002B0AD1012AA5
:1003F00008D1114B1B6801248C4023430E4C236011
:1004000010E010E00C4B1B6801248C402340002BB3
:1004100008D0002A06D1084B1B6801248C40A34356
:10042000054C236000E000BF00BF10BD00800050FD
:1004300000800150008002500080035010B5002859
:1004400006D0012826D0022846D0032877D165E0BF
:10045000454BDB6B01248C402340002B09D1012A42
:1004600007D1414BDB6B01248C4023433E4CE363BB
:100470000FE03D4BDB6B01248C402340002B08D068
:10048000002A06D1384BDB6B01248C40A343364C49
:10049000E36367E0354BDB6B01248C402340002B8A
:1004A00009D1012A07D1314BDB6B01248C40234356
:1004B0002E4CE3630FE02D4BDB6B01248C4023407B
:1004C000002B08D0002A06D1284BDC6B01238B407F
:1004D0009C43264BDC6345E0254BDB6B01248C40C1
:1004E0002340002B09D1012A07D1214BDB6B0124CA
:1004F0008C4023431E4CE3630FE01D4BDB6B012458
:100500008C402340002B08D0002A06D1184BDB6B0F
:1005100001248C40A343164CE36323E0154BDB6BB3
:1005200001248C402340002B0AD1012A08D1114B11
:10053000DB6B01248C4023430E4CE36310E010E09E
:100540000C4BDB6B01248C402340002B08D0002A8D
:1005500006D1084BDB6B01248C40A343054CE363BD
:1005600000E000BF00BF10BDC03F0050C03F0150C1
:10057000C03F0250C03F035010B5044600F034F9AC
:100580000E48C06B042108430C49C86300220121B6
:100590000320FFF753FF012000F00EF9204600F082
:1005A0009FF9012000F008F905480649486002203B
:1005B00000F002F900200349486010BDC03F03501D
:1005C000FF0F00000000035070B506460C463507CB
:1005D0002D0FE407E40F002C01D0402005438020BC
:1005E000054301212846FFF75BFE70BD2449254ADB
:1005F00011600121244A11605160002151600121E4
:10060000516000BF20494968C907C90F0029F9D0C6
:100610001D4940398868400A4002202101430322D5
:100620001143194A403A91601849896B80229143DD
:10063000164A916300BF14494039C968C907C90FF8
:100640000029F8D00321104A1163012151630021D0
:1006500051630121516300BF0B49496BC907C90FA1
:100660000029F9D00121084A9163064909688900E7
:10067000074A116011460968064A11607047000078
:10068000001BB700000000104080044000820440BE
:100690000400001008000010C206D20E0121914093
:1006A000014A11607047000000E100E00CB5002035
:1006B0001B4A1268D3B26A4613701A4A1268D3B240
:1006C0006A465370184A1268D3B26A469370174A42
:1006D000126AD3B26A46D370144A40321268D3B257
:1006E0006A461371114A80321268D3B26A46537156
:1006F0000F4A1268D3B26A4693710E4A1268D3B297
:100700006A46D371002108E040106A46525C002A14
:1007100001D0802210434A1CD1B20829F4DB0CBD61
:10072000000801500010015000200150000002504C
:10073000000102500002025000B500200F4908627B
:100740000F48806B202188430D498863002300E017
:100750005B1CFF2BFCD9FFF749FF0948806B052183
:1007600009028843064988630448803000680121F3
:100770000904084301498031086000BD008004403D
:100780000082044002210B4A51607D21C900D160E2
:100790003021414391610121116004215161012106
:1007A000516000BF03494968C907C90F0029F9D141
:1007B0007047000000C0004002210A4A5160002139
:1007C000D1603021414391610121116004215161C7
:1007D0000121516000BF03494968C907C90F0029B9
:1007E000F9D1704700C0004010B5FF2000F078F844
:1007F0003848C06B042188433649C863012211463A
:100800000320FFF71BFE0120FFF7D6FF32483349D4
:1008100048600220FFF7D0FF002209210120FFF7E6
:100820006FFD00220A210120FFF76AFD00220B2143
:100830000120FFF765FD002203210220FFF760FD84
:10084000002204210220FFF75BFD00220521022087
:10085000FFF756FD002206210220FFF751FD00227E
:1008600007210220FFF74CFDFFF720FF044602E0BE
:10087000FFF71CFF0446802020400028F8D11749CC
:100880004860012209211046FFF73AFD01220A21A2
:100890001046FFF735FD01220B211046FFF730FD12
:1008A000012203210220FFF72BFD01220421022057
:1008B000FFF726FD012205210220FFF721FD01227D
:1008C00006210220FFF71CFD012207210220FFF76D
:1008D00017FD10BDC03F0350FF0F00000000035084
:1008E0007CB505468026002209210120FFF7A6FDE0
:1008F00000220A210120FFF7A1FD00220B21012087
:10090000FFF79CFD002203210220FFF797FD002244
:1009100004210220FFF792FD002205210220FFF7AB
:100920008DFD002206210220FFF788FD002207210D
:100930000220FFF783FD00240EE030462840002807
:1009400003D001206946085502E000206946085599
:100950006806050E601CC4B2082CEEDB6846C2793E
:1009600009210120FFF76AFD684682790A210120EA
:10097000FFF764FD684642790B210120FFF75EFD19
:100980006846027903210220FFF758FD6846C278C5
:1009900004210220FFF752FD6846827805210220DB
:1009A000FFF74CFD6846427806210220FFF746FD1E
:1009B0006846027807210220FFF740FD7CBDF7B5AD
:1009C00005461646002701E0781CC7B2F05D1F28D7
:1009D000FADC00240FE0325D28466B1CDDB2019981
:1009E000FFF70FFC102D04D100250121019848408C
:1009F0000190601CC4B2BC42EDDBFEBDFFF70EFCF3
:100A0000FFF79AFE012200210320FFF779FC012263
:100A100011460320FFF774FC012202210320FFF797
:100A20006FFC012200210320FFF708FD012211467F
:100A30000320FFF703FD012202210320FFF7FEFC44
:100A4000012209211046FFF75BFC01220A21104612
:100A5000FFF756FC01220B211046FFF751FC012243
:100A600003210220FFF74CFC012204210220FFF7A2
:100A700047FC012205210220FFF742FC012206214A
:100A80000220FFF73DFC012207210220FFF738FC7E
:100A9000012209211046FFF7D1FC01220A2110464C
:100AA000FFF7CCFC01220B211046FFF7C7FC012207
:100AB00003210220FFF7C2FC012204210220FFF7DC
:100AC000BDFC012205210220FFF7B8FC012206210E
:100AD0000220FFF7B3FC012207210220FFF7AEFC42
:100AE0000B4800688021084309490860FFF7ACFB08
:100AF000084A00210846FFF762FF0520FFF742FE83
:100B0000054A01210020FFF75AFF00BFFEE7000061
:100B1000808004401C0B0000270B00002020776120
:100B20006E67206C65690049206C6F766520786976
:100B3000616F7A656E670000580B000000000010BE
:100B40000C00000004010000640B00000C00001009
:100B5000640200002001000000093D0000093D0082
:040B600000093D004B
:04000005000000C136
:00000001FF
