:020000040000FA
:1000000068020010650100006D0100006F01000032
:1000100000000000000000000000000000000000E0
:10002000000000000000000000000000710100005E
:1000300000000000000000007301000075010000D6
:1000400077010000770100007701000077010000D0
:1000500077010000770100007701000077010000C0
:1000600077010000770100007701000077010000B0
:1000700077010000770100007701000077010000A0
:100080007701000077010000770100007701000090
:100090007701000077010000770100007701000080
:1000A0007701000077010000770100007701000070
:1000B0007701000077010000770100007701000060
:1000C00000F002F800F03EF80CA030C80838241800
:1000D0002D18A246671EAB4654465D46AC4201D180
:1000E00000F030F87E460F3E0FCCB6460126334274
:1000F00000D0FB1AA246AB46334318471006000057
:1001000030060000103A02D378C878C1FAD85207F6
:1001100001D330C830C101D504680C6070470000BD
:100120000023002400250026103A01D378C1FBD813
:10013000520700D330C100D50B6070471FB51FBDFB
:1001400010B510BD00F0B5FA1146FFF7F7FF00F04B
:100150006FF800F0BCF803B4FFF7F2FF03BC00F047
:10016000C3F800000748804707480047FEE7FEE75E
:10017000FEE7FEE7FEE7FEE704480549034A054BB4
:100180007047000071040000C1000000680000100A
:100190006802001068000010002007E0002101E064
:1001A0004A1C91B2C829FBDB421C90B2344A9042EF
:1001B000F4DB7047334800680121090408433149E2
:1001C00008603148806BC008C0002F49886308462A
:1001D000806B012108432C4988630846C06BC00826
:1001E000C000C8630846C06B012108432649C863A4
:1001F00024480068012109048843224908602348F3
:10020000006801210843214908602148C06B012191
:1002100008431F49C8631D480068022108431B4961
:1002200008601B48C06B022108431949C863704726
:100230000024FFF7BFFF22E0FFF7AEFF1448C06BBA
:10024000400840001249C8630846C06B02210843B9
:100250000F49C863FFF7A0FF0D48C06B0121084399
:100260000B49C8630846C06B022188430849C8632C
:10027000601CC4B2142C02DD002400F00BF8DBE794
:1002800088130000808004404040044000800150FA
:10029000C03F01500948006802210843074908602F
:1002A0000748006904210843054908610548806B37
:1002B000800880000349886330BF70470080034096
:1002C00000ED00E00082044070477047704710B5B1
:1002D0000446C046C0462046FFF73DFF10BD000063
:1002E000004870470400001001491820ABBEFEE72B
:1002F000260002007047000000000000FFFFFFFF23
:1003000010B500248048406AC005000F030000F0CB
:10031000EFF910090B0D0F11131517191B1D1F21D4
:100320002325272900241DE0784C1BE0784C19E098
:10033000784C17E0784C15E0784C13E0784C11E0DD
:10034000784C0FE0784C0DE0784C0BE0784C09E0ED
:10035000784C07E0784C05E0784C03E0784C01E0FD
:10036000784C00BF00BF6848406AC006800E811C00
:10037000204600F0F1F8044663484030006B8007E7
:10038000800F002806D0012808D0022823D0032897
:1003900063D123E06C486D4908605EE05A48403004
:1003A00000688007800F002806D0012808D00228A6
:1003B0000AD003280DD108E063486449086008E0CA
:1003C00063486249086004E000BF00205F4908609C
:1003D00000BF00BF41E05D4804603EE04A48403055
:1003E00000688007800F002806D0012819D0022855
:1003F0002CD003282FD12AE043488068FF21813187
:100400000840002803D050485049086008E03E48A2
:100410008068C006C00E401C4B4948434B490860E9
:1004200019E039488068FF2181310840002803D055
:1004300047484649086008E033488068C006C00E57
:10044000401C434948434149086004E000BF002084
:100450003E49086000BF00BF00BF00BF2A484030CF
:10046000816B3A48006800F077F83849086010BDA1
:1004700008B53848806B20218843364988630020BE
:1004800021490862009003E000BF0098401C0090E2
:100490000098C828F8D301201B4940310860486003
:1004A000002048600120486000BF17484030406885
:1004B000C007C00F0028F8D02420134988602548C1
:1004C000806B802188432349886300BF0E48C06841
:1004D000C007C00F0028F9D003200B494031086342
:1004E00001204863002048630120486300BF06489C
:1004F0004030406BC007C00F0028F8D001200249EF
:100500004031886308BD00000080044020A107003E
:1005100000350C00E0C81000C05C1500006A18002F
:1005200040771B0080841E00C0912100009F2400A2
:1005300040AC2700E032290020402C00604D2F0005
:1005400000D43000C0304600001BB700000000108F
:100550008096980000820440002203098B422CD32D
:10056000030A8B4211D300239C464EE003460B4303
:100570003CD4002243088B4231D303098B421CD365
:10058000030A8B4201D394463FE0C3098B4201D357
:10059000CB01C01A524183098B4201D38B01C01A8F
:1005A000524143098B4201D34B01C01A5241030906
:1005B0008B4201D30B01C01A5241C3088B4201D3B5
:1005C000CB00C01A524183088B4201D38B00C01A62
:1005D000524143088B4201D34B00C01A5241411A89
:1005E00000D201465241104670475DE0CA0F00D06C
:1005F0004942031000D34042534000229C46030965
:100600008B422DD3030A8B4212D3FC22890112BAEA
:10061000030A8B420CD3890192118B4208D38901C2
:1006200092118B4204D389013AD0921100E08909DA
:10063000C3098B4201D3CB01C01A524183098B42BB
:1006400001D38B01C01A524143098B4201D34B01A4
:10065000C01A524103098B4201D30B01C01A524107
:10066000C3088B4201D3CB00C01A524183088B428E
:1006700001D38B00C01A5241D9D243088B4201D317
:100680004B00C01A5241411A00D201466346524102
:100690005B10104601D34042002B00D54942704701
:1006A00063465B1000D3404201B50020C046C046FF
:1006B00002BD7546FFF714FEAE4605006946534677
:1006C000C008C000854618B020B5FFF755FD60BCD6
:1006D00000274908B6460026C0C5C0C5C0C5C0C56C
:1006E000C0C5C0C5C0C5C0C5403D49008D467047A6
:1006F00030B47446641E2578641CAB4204D3635D39
:100700005B00E31830BC18471D46F8E72C070000D3
:100710000000001004000000040100003007000089
:1007200004000010640200002001000080F0FA02C2
:04000005000000C136
:00000001FF
