:020000040000FA
:1000000068020010650100006D0100006F01000032
:1000100000000000000000000000000000000000E0
:10002000000000000000000000000000710100005E
:1000300000000000000000007301000075010000D6
:1000400077010000770100007701000077010000D0
:1000500077010000770100007701000077010000C0
:1000600077010000770100007701000077010000B0
:1000700077010000770100007701000077010000A0
:100080007701000077010000770100007701000090
:100090007701000077010000770100007701000080
:1000A0007701000077010000770100007701000070
:1000B0007701000077010000770100007701000060
:1000C00000F002F800F03EF80CA030C80838241800
:1000D0002D18A246671EAB4654465D46AC4201D180
:1000E00000F030F87E460F3E0FCCB6460126334274
:1000F00000D0FB1AA246AB463343184798080000CD
:10010000B8080000103A02D378C878C1FAD852076C
:1001100001D330C830C101D504680C6070470000BD
:100120000023002400250026103A01D378C1FBD813
:10013000520700D330C100D50B6070471FB51FBDFB
:1001400010B510BD00F0B7F81146FFF7F7FF00F04B
:1001500023F800F000FC03B4FFF7F2FF03BC00F04B
:1001600003FC00000748804707480047FEE7FEE71A
:10017000FEE7FEE7FEE7FEE704480549034A054BB4
:100180007047000071040000C1000000680000100A
:1001900068020010680000104B20C00100F014F845
:1001A000072000F0D9F9FF20F53000F0F7FA09E058
:1001B000072000F0DEFA84B2201200F057F8E0B217
:1001C00000F054F8F4E7000070B5044600BF34486E
:1001D0000068012109040843314908603148406A38
:1001E000C008C0002F4948620846406A0121084300
:1001F0002C4948620846806AC008C00088620846E8
:10020000806A012108432749886225480068012146
:100210000904884322490860012088610846006873
:100220000121090308431E49086083201E49C86054
:100230001E4909680809214600F0E0FA0546280A27
:1002400019494860E8B208600320C8600720886048
:100250000846466970BD00BF13484069C007C00F1B
:100260000028F9D010480068C0B2704700BF0E499E
:100270004969202211400029F9D00B4908607047D4
:100280000BE000BF084A526920231A40002AF9D027
:100290000278054B1A60401C491E0029F1D17047B5
:1002A0008080044080400440008000400000001036
:1002B000704770477047754600F01CF8AE46050061
:1002C00069465346C008C000854618B020B5FFF700
:1002D00053FF60BC00274908B6460026C0C5C0C50C
:1002E000C0C5C0C5C0C5C0C5C0C5C0C5403D49002A
:1002F0008D4670470048704704000010FFFFFFFF65
:1003000010B500248048406AC005000F030000F0CB
:1003100032FB10090B0D0F11131517191B1D1F218F
:100320002325272900241DE0784C1BE0784C19E098
:10033000784C17E0784C15E0784C13E0784C11E0DD
:10034000784C0FE0784C0DE0784C0BE0784C09E0ED
:10035000784C07E0784C05E0784C03E0784C01E0FD
:10036000784C00BF00BF6848406AC006800E811C00
:10037000204600F043FA044663484030006B800793
:10038000800F002806D0012808D0022823D0032897
:1003900063D123E06C486D4908605EE05A48403004
:1003A00000688007800F002806D0012808D00228A6
:1003B0000AD003280DD108E063486449086008E0CA
:1003C00063486249086004E000BF00205F4908609C
:1003D00000BF00BF41E05D4804603EE04A48403055
:1003E00000688007800F002806D0012819D0022855
:1003F0002CD003282FD12AE043488068FF21813187
:100400000840002803D050485049086008E03E48A2
:100410008068C006C00E401C4B4948434B490860E9
:1004200019E039488068FF2181310840002803D055
:1004300047484649086008E033488068C006C00E57
:10044000401C434948434149086004E000BF002084
:100450003E49086000BF00BF00BF00BF2A484030CF
:10046000816B3A48006800F0C9F93849086010BD4E
:1004700008B53848806B20218843364988630020BE
:1004800021490862009003E000BF0098401C0090E2
:100490000098C828F8D301201B4940310860486003
:1004A000002048600120486000BF17484030406885
:1004B000C007C00F0028F8D02420134988602548C1
:1004C000806B802188432349886300BF0E48C06841
:1004D000C007C00F0028F9D003200B494031086342
:1004E00001204863002048630120486300BF06489C
:1004F0004030406BC007C00F0028F8D001200249EF
:100500004031886308BD00000080044020A107003E
:1005100000350C00E0C81000C05C1500006A18002F
:1005200040771B0080841E00C0912100009F2400A2
:1005300040AC2700E032290020402C00604D2F0005
:1005400000D43000C0304600001BB700000000108F
:10055000809698000082044000B5072800DD00BDA9
:100560009E49896B102291439C4A91639C4909687A
:100570000122520311439A4A11601146096801226F
:1005800012041143964A1160030000F0F4F90805C3
:100590001E37506E8CAAC3E19249496BC908C90045
:1005A000904A51631146496B022211438D4A5163AF
:1005B0001146496B182291438A4A51631146496B8F
:1005C00080229143874A5163C3E08649896BC908F9
:1005D000C900844A91631146896B02221143814A02
:1005E00091631146896B182291437E4A91631146AB
:1005F000896B802291437B4A9163AAE07949C96B58
:10060000C908C900774AD1631146C96B0222114358
:10061000744AD1631146C96B18229143714AD16360
:100620001146C96B802291436E4AD16391E06D49B6
:1006300040310968C908C9006A4A40321160114650
:10064000096802221143674A403211601146096865
:1006500018229143634A4032116011460968802292
:100660009143604A4032116073E05E49403109694C
:10067000C908C9005B4A403211611146096902226A
:100680001143584A403211611146096918229143B9
:10069000544A403211611146096980229143514AFE
:1006A0004032116155E04F4940314969C908C900DC
:1006B0004C4A403251611146496901221143494A6D
:1006C000403251611146496918229143454A4032EE
:1006D00051611146496980229143424A4032516139
:1006E00037E04049C96AC908C9003E4AD16211468B
:1006F000C96A012211433B4AD1621146C96A1822D4
:100700009143384AD1621146C96A80229143354AE1
:10071000D1621EE0334940318969C908C900314AB4
:100720004032916111468969012211432D4A4032BC
:10073000916111468969182291432A4A4032916198
:100740001146896980229143264A4032916100E036
:1007500000BF00BF22490968012212049143204AC8
:10076000116001218140204A1143204A116000BFDD
:10077000F5E6014600BF00BF1C4A10328B00D2587C
:10078000D20FD207002AF7D0184A10328B00D25865
:100790001204900D164A4243900A704710B5044661
:1007A0000F4800680121490208430D4908600220F2
:1007B000104948607D21C9000F48006800F01EF80C
:1007C000401E0C49C8600846846101200860022070
:1007D00048613020C8630120486010BD0082044099
:1007E00080800440404004400018000400C00140E4
:1007F000E40C00000040014000000010002203094A
:100800008B422CD3030A8B4211D300239C464EE02B
:1008100003460B433CD4002243088B4231D30309E7
:100820008B421CD3030A8B4201D394463FE0C30999
:100830008B4201D3CB01C01A524183098B4201D3B1
:100840008B01C01A524143098B4201D34B01C01A9C
:10085000524103098B4201D30B01C01A5241C30814
:100860008B4201D3CB00C01A524183088B4201D383
:100870008B00C01A524143088B4201D34B00C01A6F
:100880005241411A00D201465241104670475DE084
:10089000CA0F00D04942031000D340425340002207
:1008A0009C4603098B422DD3030A8B4212D3FC22B0
:1008B000890112BA030A8B420CD3890192118B422F
:1008C00008D3890192118B4204D389013AD0921145
:1008D00000E08909C3098B4201D3CB01C01A524100
:1008E00083098B4201D38B01C01A524143098B42C9
:1008F00001D34B01C01A524103098B4201D30B01B2
:10090000C01A5241C3088B4201D3CB00C01A5241D6
:1009100083088B4201D38B00C01A5241D9D24308BD
:100920008B4201D34B00C01A5241411A00D20146FA
:10093000634652415B10104601D34042002B00D564
:100940004942704763465B1000D3404201B5002026
:10095000C046C04602BD10B50446C046C04620464B
:10096000FFF7F9FB10BD000001491820ABBEFEE700
:1009700026000200704730B47446641E2578641C5B
:10098000AB4204D3635D5B00E31830BC18471D46DF
:10099000F8E70000B40900000000001004000000A7
:1009A00004010000B8090000040000106402000007
:0809B0002001000080F0FA02B2
:04000005000000C136
:00000001FF
