:020000040000FA
:1000000068020010850100008D0100008F010000D2
:1000100000000000000000000000000000000000E0
:10002000000000000000000000000000910100003E
:1000300000000000000000009301000055050000D2
:100040009701000097010000970100009701000050
:100050009701000097010000970100009701000040
:100060009701000097010000970100009701000030
:100070009701000097010000970100009701000020
:100080009701000097010000970100009701000010
:100090009701000097010000970100009701000000
:1000A00097010000970100009701000097010000F0
:1000B00097010000970100009701000097010000E0
:1000C00000F002F800F04EF80CA030C808382418F0
:1000D0002D18A246671EAB4654465D46AC4201D180
:1000E00000F040F87E460F3E0FCCB6460126334264
:1000F00000D0FB1AA246AB4633431847281C000029
:10010000481C0000103A02D378C878C1FAD85207C8
:1001100001D330C830C101D504680C6070470000BD
:100120000023002400250026103A01D378C1FBD813
:10013000520700D330C100D50B60704710B5662957
:1001400002D101F099FD10BD002010BD1FB500F0D7
:10015000C3F804000020002101F078FDE0601FBD1D
:1001600010B510BD01F0C4FC1146FFF7EFFF00F021
:100170007EFA00F0B9F803B4FFF7F2FF03BC01F018
:100180001BFD00000748804707480047FEE7FEE7E1
:10019000FEE7FEE7FEE7FEE704480549034A054B94
:1001A0007047000071040000C100000068000010EA
:1001B000680200106800001070B5044600BF3448A3
:1001C0000068012109040843314908603148406A48
:1001D000C008C0002F4948620846406A0121084310
:1001E0002C4948620846806AC008C00088620846F8
:1001F000806A012108432749886225480068012157
:100200000904884322490860012088610846006883
:100210000121090308431E49086083201E49C86064
:100220001E4909680809214600F017FC0546280AFE
:1002300019494860E8B208600320C8600720886058
:100240000846466970BD00BF13484069C007C00F2B
:100250000028F9D010480068C0B270470E49086005
:1002600000BF0D494969202211402029F9D170476A
:100270000BE000BF084A526920231A40002AF9D037
:100280000278054B1A60401C491E0029F1D17047C5
:100290008080044080400440008000400000001046
:1002A0000FB41CB5074B06AA7B446946009005981D
:1002B00001F049F80020694600F009F81CBC08BCB0
:1002C00004B01847230000007047704770470A6861
:1002D0001070521C0A6070470048704728000010D8
:1002E000004870470800001010B50446C046C046DC
:1002F0002046FFF740FF10BD70470000FFFFFFFFE3
:1003000010B500248048406AC005000F030001F0CA
:1003100071FC10090B0D0F11131517191B1D1F214F
:100320002325272900241DE0784C1BE0784C19E098
:10033000784C17E0784C15E0784C13E0784C11E0DD
:10034000784C0FE0784C0DE0784C0BE0784C09E0ED
:10035000784C07E0784C05E0784C03E0784C01E0FD
:10036000784C00BF00BF6848406AC006800E811C00
:10037000204600F072FB044663484030006B800763
:10038000800F002806D0012808D0022823D0032897
:1003900063D123E06C486D4908605EE05A48403004
:1003A00000688007800F002806D0012808D00228A6
:1003B0000AD003280DD108E063486449086008E0CA
:1003C00061486249086004E000BF00205F4908609E
:1003D00000BF00BF41E05D4804603EE04A48403055
:1003E00000688007800F002806D0012819D0022855
:1003F0002CD003282FD12AE043488068FF21813187
:100400000840002803D050485049086008E03E48A2
:100410008068C006C00E401C4B4948434B490860E9
:1004200019E039488068FF2181310840002803D055
:1004300045484649086008E033488068C006C00E59
:10044000401C414948434149086004E000BF002086
:100450003E49086000BF00BF00BF00BF2A484030CF
:10046000816B3A48006800F0F8FA3849086010BD1E
:1004700008B53748806B20218843354988630020C0
:1004800021490862009003E000BF0098401C0090E2
:100490000098C828F8D301201B4940310860486003
:1004A000002048600120486000BF17484030406885
:1004B000C007C00F0028F8D02320134988602448C3
:1004C000806B802188432249886300BF0E48C06842
:1004D000C007C00F0028F9D003200B494031086342
:1004E00001204863002048630120486300BF06489C
:1004F0004030406BC007C00F0028F8D001200249EF
:100500004031886308BD00000080044020A107003E
:1005100000350C00E0C81000C05C1500006A18002F
:1005200040771B0080841E00C0912100009F2400A2
:1005300040AC2700E032290020402C00604D2F0005
:1005400000D43000C0304600001BB700000000108F
:100550000082044058480068401C574908607047B2
:1005600056494143491E564A516100219161114645
:10057000096903221143524A116100BF4E490968BB
:100580000029FBD000214C4A11604D4A116170478F
:10059000F0B585B0FF20F530FFF7E2FF002000F056
:1005A00063F90746FF20F530FFF7DAFF012000F07E
:1005B0005BF903903802039908430446641120460E
:1005C00000F05FFB05460022FF239B0500F05CFB6B
:1005D0000191009000F0EEFA0290029805B0F0BD93
:1005E000F0B587B000200690059000240490039099
:1005F00000270290022206A900F049F97D20C000E0
:10060000FFF7AEFF6846047E407E049004984009E0
:100610000390E10003980F1880202040C009029049
:100620000298002810D1384600F02BFB0546002226
:10063000FF239B0500F028FB0191009000F0BAFA1F
:100640000590059807B0F0BD38461E494840471C44
:10065000384600F016FB054600221B4B00F014FB49
:100660000191009000F0A6FA05900598EAE71CB504
:10067000164903C90191009000264B20C001FFF7E5
:100680009BFD012000F02EF815E0082110A0FFF7D7
:10069000EFFD114E304600F01BFC044622460B468F
:1006A0000EA16846FFF7FCFD08216846FFF7E0FD54
:1006B0000A20FFF7D3FDE8E704000010C05D00004A
:1006C00000E000E0FF0700000000C0BF881C000041
:1006D000626567696E3A20001B0DAB4025382E33EA
:1006E000660000005549496802221143534A51608F
:1006F00052498031096820221143504A80321160EA
:10070000114609680122120411434C4A80321160DB
:100710004B49096B89098901494A11631146096BE3
:1007200001221143464A11631146496B8909890127
:1007300051631146496B01221143414A51633F49BC
:10074000803109680122120411433C4A8032116051
:10075000012805D12F21820711615D21516106E039
:10076000BC21012292071161FF2175315161FF21E6
:100770000122920791611146096840221143120635
:10078000116070470820C1068861C006006810210A
:10079000084389060860704700B50246D007C00FBD
:1007A000002801D0402300E01823FF200121890701
:1007B00088610846006860210843012189070860B4
:1007C00000BF012080070068082108400028F8D0F9
:1007D000C80682602820C106886100BF012080070A
:1007E0000068082108400028F8D0C80640689842F0
:1007F00003D0FFF7C7FF012000BD0020FCE7012167
:10080000890788600821CA06916100BF0121890714
:100810000968082211400029F8D070470C210122F4
:100820009207916100BF01218907096808221140E0
:100830000029F8D0D1068968C8B27047008004400A
:100840000040044070B505460C469720FFF7A4FF12
:100850002846FFF7D4FF2046FFF7D1FFFFF792FFAE
:100860000520FFF77DFE70BD70B50446002597207A
:10087000FFF792FF2046FFF7C2FF9720FFF78CFF9C
:10088000FFF7CCFF0546FFF77DFF284670BD70B52A
:1008900006460C46154608E03046721CD6B2FFF7F5
:1008A000E3FF2070641C681EC5B2002DF4D170BD3A
:1008B00070B505460C46164606E021782846FFF737
:1008C000C1FF681CC5B2641C3046711ECEB2002840
:1008D000F3D170BD10B50120FFF7C6FF0446002C10
:1008E00000D110BD00210120FFF7ACFF0120FFF770
:1008F000BBFF0446002C00D1F3E70120F1E770B5FF
:10090000044685690068C10601D5302600E020262E
:10091000C00707D070BD62683046A1689047206A62
:10092000401C20626D1EF6D570BD70B50446856909
:100930000078C00707D170BD6268A1682020904789
:10094000206A401C20626D1EF6D570BDF3B50446CA
:10095000002081B020622046E168884700287AD0D4
:10096000252802D06268A16871E0E1682046002570
:10097000884706460020E0610746A0612A2E0AD07B
:10098000304601F05BF9002827D0B8000019303E4E
:100990000090866119E00298BA00121902C89161AC
:1009A00002902046E1688847012F064617D1E0698A
:1009B00000281FDA202085431CE000980A21806966
:1009C000484300998019303888612046E16888479B
:1009D000064601F033F90028EFD1012F0AD02E2E60
:1009E00008D12046E16888470646202005437F1C41
:1009F000022FC3DBA069002803DA4042A061012076
:100A00000543E80701D010208543002E23D030464F
:100A10004138192803D80120C0020543203620465A
:100A200025603146029A1546FFF788FB00280BD057
:100A3000012806D0ED1DE808C000083002908AE7C2
:100A400009E02D1D029586E762683046A16890474F
:100A5000206A401C7EE7206AFEBD002203098B420B
:100A60002CD3030A8B4211D300239C464EE003464D
:100A70000B433CD4002243088B4231D303098B4201
:100A80001CD3030A8B4201D394463FE0C3098B4237
:100A900001D3CB01C01A524183098B4201D38B0190
:100AA000C01A524143098B4201D34B01C01A524133
:100AB00003098B4201D30B01C01A5241C3088B4278
:100AC00001D3CB00C01A524183088B4201D38B0063
:100AD000C01A524143088B4201D34B00C01A524105
:100AE000411A00D201465241104670475DE0CA0FDC
:100AF00000D04942031000D34042534000229C469C
:100B000003098B422DD3030A8B4212D3FC228901A5
:100B100012BA030A8B420CD3890192118B4208D37B
:100B2000890192118B4204D389013AD0921100E0DD
:100B30008909C3098B4201D3CB01C01A52418309F1
:100B40008B4201D38B01C01A524143098B4201D31E
:100B50004B01C01A524103098B4201D30B01C01A49
:100B60005241C3088B4201D3CB00C01A52418308C3
:100B70008B4201D38B00C01A5241D9D243088B4219
:100B800001D34B00C01A5241411A00D201466346BC
:100B900052415B10104601D34042002B00D5494220
:100BA000704763465B1000D3404201B50020C04649
:100BB000C04602BD0246C80FC00781434B0030B596
:100BC0004B405B009B0D20D01923DB06C918012385
:100BD0001B05994220DB0324A40704251346AB40E0
:100BE0000BD3002B04D1EB0613409B00E34204D44B
:100BF00001246407002312195941FF231B05994260
:100C00000BD2C9000143500F09E0CB0204D50143C8
:100C10000803024305D0054830BDFF21C90508433C
:100C200030BD084607210905884330BD0000C07F5C
:100C30001F22030C02D10F22000402D0030E03D0A6
:100C400004E00020014670470002083A030F01D17A
:100C50000001121F830F01D18000921E002801DBCA
:100C60004000521E120551184205C012411810468C
:100C70007047C10FC90700D04042012292071143BB
:100C8000D6E701218907D3E7F0B58B4C0F0925463C
:100C900089B0BD437BD01D092646AE43FAD00E462F
:100CA0005E402740F60F3E43254071D0240121428B
:100CB000FBD0FF24AD19A4042D1B039501252D05A0
:100CC000DB02DB0AC9022B43C90A29431E010901C1
:100CD000040F130F050121431701880B8203914371
:100CE0002D098C46A90B1E438A039543B30B9A0327
:100CF00096433F09BA0B9403A74302962E467E43C0
:100D00000497B6464E19D7190C46019654430597D9
:100D10007E43371B7646BF1B3601B646BE0B3619DF
:100D200000967646BC043719009C01D3641C0094DD
:100D30006400002F01D001263443029E049F7543B6
:100D400066467E430496760034196E00341900948A
:100D5000029C019E1C196643751BAE4606946546AF
:100D60004519059C05956C43594375460891691AC8
:100D70000191049E01465143A41B0491611A009CF9
:100D80000791E10605D061090122114302E072E0FA
:100D90006EE06109089D00272C0A2D066918049D44
:100DA0007C412A0A2D066918019D6241AC0DAD02F5
:100DB0006D185441079A910D920255196141029A9A
:100DC000644658435443069B059A5A43121A131B10
:100DD0009A0E9B015B187A41010B0005C318514123
:100DE000220A200644195A419A4200D2491C012085
:100DF0004002814203D315230226F64302E0142366
:100E00000326F6432020C51AA9401746AF40DA4012
:100E10000A4320460399D84009147318190551183C
:100E2000039A3843D2075140AC4009D00122944084
:100E300006D30022401C5141002C01D14008400043
:100E40001E4A934212D3012203989206904207DB76
:100E50000520400709181A480143C012414004E028
:100E6000032040070818C10FC907002009B0F0BDD2
:100E70000020F107FAE705180C464C4111486D4275
:100E8000A04115D394181A465A410E486442904125
:100E90000ED301204A004005824209D35A00824203
:100EA00006D35940C90F084AC90700201143DDE79E
:100EB00000200649DAE700000000FF07FE070000F7
:100EC000FFFFFF7F0000E0FF0000F07F0000F87FE1
:100ED0000121C9050123411842001B06D3185B0EEE
:100EE0000AD0C1100722D206891840075242D142C7
:100EF00001D5520089187047090208D50146002A19
:100F000003D0C10FC9070020704710467047420246
:100F100002D0002002497047072109050143F4E788
:100F20000000F87F7047FFB50C461E468FB003CA1D
:100F3000089009914F007D0D00D16D1E00210846DB
:100F40000020C0460321099A89050840002A03DAD7
:100F50008200801840080840800D01280A9002DDB8
:100F60000020C0430A90089807430DD0F048F1498B
:100F7000281848430714189800281DD07542291EC8
:100F80001DDD0A9842421BE01898012802D000207B
:100F9000302104E00020F24305E02154401CB0421F
:100FA000FBDB30460022189B002121540F998B60F7
:100FB0000A60486013B0F0BDBD1B6D1CDFE70A9AE4
:100FC000002900DA69420BA800F052FA0BAB07CBFC
:100FD00003AB07C30899099800F0B6FA6B4607C33C
:100FE0000146D5480918002D00910BDDD249039820
:100FF0000A9A49424018002303A90390684600F06A
:1010000013FD08E003990A9A0023081803A9039026
:10101000684600F0B3FC6B4607C30004000C03D025
:101020000020C043410800E01046189A002A03D06F
:101030000022009215461EE0751E05D400F096F9B8
:10104000303262556D1EF9D501220843079602D051
:1010500000227F1C04E02078302801D100227F1E6E
:10106000002A069787D01EE0112D07DA00F07EF9DE
:10107000303262556D1C02460A43F5D1084303D055
:101080000098002819D00EE00021681E05E0235CBE
:10109000625C63542254401E491C8142F7DBA81B4A
:1010A000401E07950690079A18990020A0540F98A3
:1010B000079B069A81600CC07CE7112600201890DF
:1010C00059E7D21DF0B50D460446D10893B0C900CA
:1010D00003C90C900D9100F09BFD02460D98C00FC6
:1010E00001D02D2007E02068810701D52B2002E0E8
:1010F0004007C00F4001032A0F9001D0072A05DBEB
:1011000003462946204600F06FF90EE1207880065C
:1011100001D5E76900E006272846652D04D066283A
:1011200014D0672D69D12DE00020112F009001DB34
:10113000112300E07B1C0CAA03A910A8FFF7F3FE03
:101140001199002610987D1C0E9142E001203B462B
:101150000CAAC0070B900120009003A910A8FFF76C
:10116000E2FE119D12981099002600280E9501D1DB
:10117000781C0D18781B02D446427D1C761EE81B95
:1011800000903AE0012F00DA01270020112F009093
:1011900001DD112300E03B460CAA03A910A8FFF7CC
:1011A000C2FE11993D46109800260E91217809073C
:1011B0000BD40E99A94200DA0D4603A9012D04DDD6
:1011C0004A19203AD27F302A06D0B84201DA011DEE
:1011D00004DA012100910FE06D1EEFE7002802DC28
:1011E00086192D1A03E0411CA94200DD0D46801B23
:1011F000401C00900120C0070B902078000705D408
:101200000098A84202DB0020C043009069460020FD
:10121000C8720B98012102AF0337C907884225D055
:10122000022010902B2011900B9800280BDA4042DE
:101230000B902D20119006E00B9800F045FC30310A
:101240007F1E0B9039701099481E00291090F3DC16
:101250000B980028F0D111987F1E38702088000567
:1012600001D5452000E065207F1E387001A8C01B15
:10127000C01D0B900F98002800D001204119009844
:10128000C01709180B980818A169081A401EA06118
:101290002078C00602D42046FFF731FB0F980028C3
:1012A00005D06268A1689047206A401C20622078BF
:1012B000C00625D52046FFF722FB21E0002E07DBE4
:1012C0000E98B04204DD03A86268805DA16802E068
:1012D0006268A16830209047206A761C401C20621A
:1012E0000098401E002800900AD1FEF7F5FFC06864
:1012F00062680168405CA1689047206A401C2062D7
:1013000028466D1E0028D9DC07E062683878A1689D
:101310007F1C9047206A401C20620B99481E0029C0
:101320000B90F2DC2046FFF700FB032042E60000B2
:1013300001FCFFFF104D0000E1DFFFFF01694A1CC7
:1013400002610878704700B58FB0029100210591C5
:101350000549019379440391114604906846FFF7CB
:10136000F5FA0FB000BD0000E5FFFFFF0B4670B5BA
:10137000024689078008084319469D08141AA941A6
:1013800025090807054308092C194841250A0106C3
:101390000D43010A2C194141200C0D0428430D0C6A
:1013A00000194D41002140194D41C008690708430B
:1013B000E908840F8D002543840024184D41241929
:1013C0006D41121BAB4107E00925ED432C11521969
:1013D00063410024401C61411C460A250026551B20
:1013E000B441F1D270BD0000F8B51F460446012398
:1013F0000068DB02032601461840072A05DB0028A7
:1014000001D017A506E017A504E0002801D016A515
:1014100000E016A5102081432160A069C01E002FA6
:10142000A06101D0401EA0612046FFF768FA002F9E
:1014300009D038466268A1689047206A401C206243
:10144000C01C206206E0206AFAE762682878A1687A
:101450006D1C9047761EF8D22046FFF766FAF8BD5D
:101460004E414E006E616E00494E4600696E660048
:10147000F7B516468AB0334878446C4603467C3349
:10148000C06F5A689B680DC42E487844763003AC10
:101490000DC80DC43720C001081837211B30FFF7D5
:1014A000E6FA05460C46803D1B3C02D5644201200D
:1014B00000E000200027099010E0E0070CD00C208D
:1014C00020497843794432464C3941186846012313
:1014D00000F054FA6B4607C364107F1C002CECD15B
:1014E000184F7F442E3F16E0E80712D02001C019A4
:1014F0000EC80691089307920068F04201D198192E
:1015000008903246012306A903A800F037FA03AB7E
:1015100007C36D10641C002DE6D10998002806D081
:1015200032466946012303A800F07EFA05E0012354
:101530003246694603A800F021FA0A9B07C30DB0A2
:10154000F0BD000014080000034640000A4610B534
:10155000400D0BD00121C9070F24A40200191C0360
:1015600064082143540D2143D20207E000210120E9
:10157000F2E7D40F490021435200401E0029F8DA57
:10158000DB0FDB07184310BDFFB50D46144685B0D1
:101590004868516800F016FB00910190A868A168A6
:1015A00000F010FB02910390A868616800F00AFB4C
:1015B000029A12188242029201D2012000E0002019
:1015C000019A0B18D2180028019202D08A4202D93F
:1015D00003E08A4201D2012000E0002000990818AF
:1015E00000906868A16800F0EDFA029A1218824231
:1015F000029201D2012000E00020019A0B18D218BB
:101600000028019202D08A4202D903E08A4201D224
:10161000012000E000200099081800902868216847
:1016200040004900400849084018FA49471814E0AA
:1016300001994000C90F08430090019802994000A9
:10164000C90F08430190029803994000C90F08434D
:101650000290039840007F1E039000980028E7DA6C
:101660000898002801D0EC4E00E00026B74201DACD
:10167000012000E00020002804902AD0F71BF80683
:10168000C00E15D0029B2021091A039A8B401A43E1
:101690000392029A019BC2408B401A430292019A24
:1016A000009BC2408B4000991A430192C1400091B7
:1016B0007B110DD06F460320C11A03D50021820093
:1016C000B95003E08A008100BA587A50401EF3D521
:1016D000374603980299002800D00120014308985A
:1016E0000291002808460CD0002800D00120019962
:1016F000019A490508430121D20AC902D202019286
:1017000000E001210E9B0122D207012B02D0002B09
:1017100003D013E0002807D120E0904204D8904283
:101720000CD1019B0B4209D0019B5918019105D1A5
:101730000099491C009101D17F1C009200280DD016
:10174000102108460020C0460498002806D00F98B3
:10175000002803D0082108460020C04628682168D8
:10176000019B009A4840C10F0598C90739430EC034
:1017700009B0F0BDFFB587B0099A08980899536879
:1017800092684068896896460022039317469446FB
:10179000089A12685300099A5B08126852005208AE
:1017A0009A1A9E4BD4180A9A002A01D0352200E0DA
:1017B000402206920022012315460492DB0705937E
:1017C00024E0002D05D175460346039E4D1BB34111
:1017D00009D375466646039B491B049D9841059BAA
:1017E0007519AC465F4163463B4308D0059B049E98
:1017F000DD0776082E435B080496059301E0521E30
:10180000641EC50FED0749184041521C069B9A42C1
:10181000D7DB002D04D17546039A6B1A824101D2A1
:1018200003200CE0039A0B466B404240134303D065
:10183000014303D0012002E0022000E000206146C5
:1018400001910021009702910A99002905D0614673
:1018500040020143704B019102E080070023029097
:101860009C4201DA012000E0002007003AD01A1B58
:10187000D006C00E15D0029D2021019C091AC5403A
:101880008C402543029C8C4000D001242543019CC0
:101890000295009DC4408D4000992C430194C140A5
:1018A000009154111DD06D460221002202290CD155
:1018B0000320001B07E0002804DB8600AE59002E41
:1018C00000D00122401C0328F5DB081B02D588004C
:1018D0002A5004E08000285810438A00A850491E6E
:1018E000E3D51C460A98002802980CD0002800D0A6
:1018F00001200199019A490508430121D20AC90230
:10190000D202019200E00121109B0122D207012B9B
:1019100002D0002B03D013E0002807D11FE0904233
:1019200004D890420CD1019B0B4209D0019B59185D
:10193000019105D10099491C009101D1641C0092CC
:1019400000280CD0102108460020C046002F06D0E9
:101950001198002803D0082108460020C0460898A6
:101960000999019A009B006809684840C10F0798CF
:10197000C907214382600AC00BB0F0BD00B585B035
:10198000019300920A460146002302A8FFF7FCFDDE
:1019900002A807C805B000BDFFB50A461F4685B0BE
:1019A0000799019301230091014602A8FFF7ECFD7E
:1019B00002990398049ECA0F4900D20700920F2291
:1019C000490892028C1A0021002800DB0C464500D1
:1019D00013486D08844214D3079A002A04DA441E7F
:1019E0000026104DF64302E004460D460E46102137
:1019F00008460020C046002F03D0042108460020DE
:101A0000C0462005E90A0843009908436905F20A1F
:101A10001143ADE602C0FFFF013C0000FF3F0000A4
:101A2000FF070000FFFFFF7F00B585B00193009224
:101A30000A460146002302A8FFF79CFE02A807C839
:101A4000A8E7FFB50A461F4685B007990193012311
:101A50000091014602A8FFF78DFE02990398049EAB
:101A6000CA0F4900D20700920F22490892028C1A2D
:101A70000021002800DB0C46450011486D08844217
:101A800014D3079A002A04DA441E00260D4DF643AB
:101A900002E004460D460E46102108460020C046CE
:101AA000002F03D0042108460020C0462005E90A83
:101AB0000843009908436905F20A114358E60000FB
:101AC000FF070000FFFFFF7F01468008081A020998
:101AD0001018020A1018020C1018C0088200121800
:101AE0005200891A01E0401C0A390A29FBD27047CA
:101AF0007546FEF7F5FBAE46050069465346C0083D
:101B0000C000854618B020B5FEF746FB60BC002734
:101B10004908B6460026C0C5C0C5C0C5C0C5C0C5B9
:101B2000C0C5C0C5C0C5403D49008D4670470000D6
:101B3000024670B50A4392072AD11E4DEE0104C831
:101B400008C9541B9443344017D0D0B2D9B2401ABC
:101B50002106014310D190B299B2401A21040143E9
:101B60000AD110021902000A090A401A210201438F
:101B700002D1100E190E401A70BD9A42DFD010BA71
:101B800019BA884201D9012070BD0020C04370BD40
:101B900002780B78401C491C002A09D09A4207D1D0
:101BA00002780B78401C491C002A01D09A42EFD0E1
:101BB000D01A70BD0101010101491820ABBEFEE73A
:101BC00026000200F8B5040C8BB2264682B25E43B2
:101BD000104658430D0C370C360400218019164668
:101BE00079416E43370C36048019264679416E439D
:101BF0008919F8BD30B47446641E2578641CAB4264
:101C000004D3635D5B00E31830BC18471D46F8E75A
:101C10004900CA020243100000D004204A0D01D03E
:101C200001221043044A490D914201D10221084387
:101C3000012800D105207047FF07000030380A282E
:101C400001D20120704700207047000010B5002924
:101C50000AD00878002807D005487844FFF768FFC5
:101C6000002801D0002010BD0248784410BD0000BB
:101C7000EA000000E200000003B402487844844611
:101C800003BC604743F4FFFF300000000000000089
:101C900002400000000000A000000000054000001D
:101CA000000000C8000000000C4000000000409C44
:101CB00000000000194000000020BCBE0000000031
:101CC00034400000BFC91B8E00000004B540000076
:101CD000504BCFD06607E2CF010000006C410000FE
:101CE0003E8251AADFEEA73401000000D942000075
:101CF000DCB5A0E23A301F97FFFFFFFFB4450000BC
:101D0000FD25A0C8E9A3C14FFFFFFFFFFF3F000073
:101D10000000008000000000FF3F00000000008085
:101D200000000000601D000000000010080000001E
:101D300004010000681D000008000010600200009F
:101D4000200100001C00000043000000F8FFFFFF1E
:101D50000C0000000E0000000F0000002E0000002C
:081D6000006CDC020000000031
:04000005000000C136
:00000001FF
